{
  "contractName": "Carton",
  "abi": [
    {
      "inputs": [
        {
          "internalType": "address",
          "name": "_YaytsoAddress",
          "type": "address"
        }
      ],
      "stateMutability": "nonpayable",
      "type": "constructor"
    },
    {
      "inputs": [],
      "name": "YaytsoInterface",
      "outputs": [
        {
          "internalType": "contract ERC721",
          "name": "",
          "type": "address"
        }
      ],
      "stateMutability": "view",
      "type": "function",
      "constant": true
    },
    {
      "inputs": [
        {
          "internalType": "uint256",
          "name": "",
          "type": "uint256"
        }
      ],
      "name": "boxIdToTokenId",
      "outputs": [
        {
          "internalType": "uint256",
          "name": "",
          "type": "uint256"
        }
      ],
      "stateMutability": "view",
      "type": "function",
      "constant": true
    },
    {
      "inputs": [
        {
          "internalType": "uint256",
          "name": "",
          "type": "uint256"
        }
      ],
      "name": "idToBox",
      "outputs": [
        {
          "internalType": "uint256",
          "name": "id",
          "type": "uint256"
        },
        {
          "internalType": "string",
          "name": "lat",
          "type": "string"
        },
        {
          "internalType": "string",
          "name": "lon",
          "type": "string"
        },
        {
          "internalType": "bool",
          "name": "locked",
          "type": "bool"
        },
        {
          "internalType": "uint256",
          "name": "nonce",
          "type": "uint256"
        }
      ],
      "stateMutability": "view",
      "type": "function",
      "constant": true
    },
    {
      "inputs": [
        {
          "internalType": "uint256",
          "name": "",
          "type": "uint256"
        }
      ],
      "name": "idToKey",
      "outputs": [
        {
          "internalType": "address",
          "name": "",
          "type": "address"
        }
      ],
      "stateMutability": "view",
      "type": "function",
      "constant": true
    },
    {
      "inputs": [
        {
          "internalType": "string",
          "name": "_lat",
          "type": "string"
        },
        {
          "internalType": "string",
          "name": "_lon",
          "type": "string"
        }
      ],
      "name": "createBox",
      "outputs": [],
      "stateMutability": "nonpayable",
      "type": "function"
    },
    {
      "inputs": [
        {
          "internalType": "uint256",
          "name": "_boxId",
          "type": "uint256"
        },
        {
          "internalType": "address",
          "name": "_key",
          "type": "address"
        },
        {
          "internalType": "uint256",
          "name": "_tokenId",
          "type": "uint256"
        }
      ],
      "name": "fillBox",
      "outputs": [],
      "stateMutability": "nonpayable",
      "type": "function"
    },
    {
      "inputs": [
        {
          "internalType": "uint256",
          "name": "_id",
          "type": "uint256"
        },
        {
          "internalType": "uint256",
          "name": "_nonce",
          "type": "uint256"
        }
      ],
      "name": "getMessageHash",
      "outputs": [
        {
          "internalType": "bytes32",
          "name": "",
          "type": "bytes32"
        }
      ],
      "stateMutability": "pure",
      "type": "function",
      "constant": true
    },
    {
      "inputs": [
        {
          "internalType": "address",
          "name": "_signer",
          "type": "address"
        },
        {
          "internalType": "uint256",
          "name": "_id",
          "type": "uint256"
        },
        {
          "internalType": "uint256",
          "name": "_nonce",
          "type": "uint256"
        },
        {
          "internalType": "bytes",
          "name": "signature",
          "type": "bytes"
        }
      ],
      "name": "verify",
      "outputs": [
        {
          "internalType": "bool",
          "name": "",
          "type": "bool"
        }
      ],
      "stateMutability": "pure",
      "type": "function",
      "constant": true
    },
    {
      "inputs": [
        {
          "internalType": "uint256",
          "name": "_boxId",
          "type": "uint256"
        },
        {
          "internalType": "address",
          "name": "_finder",
          "type": "address"
        },
        {
          "internalType": "uint256",
          "name": "_nonce",
          "type": "uint256"
        },
        {
          "internalType": "bytes",
          "name": "signature",
          "type": "bytes"
        }
      ],
      "name": "claimYaytso",
      "outputs": [],
      "stateMutability": "nonpayable",
      "type": "function"
    }
  ],
  "bytecode": "0x608060405234801561001057600080fd5b5060405161175d38038061175d8339818101604052602081101561003357600080fd5b810190808051906020019092919050505080600160006101000a81548173ffffffffffffffffffffffffffffffffffffffff021916908373ffffffffffffffffffffffffffffffffffffffff160217905550506116c8806100956000396000f3fe608060405234801561001057600080fd5b50600436106100935760003560e01c8063adf7100411610066578063adf7100414610361578063d0c34c0e146103a3578063f406f38314610492578063f581d6c9146105e4578063fd8fdbe11461063c57610093565b80630deea608146100985780634a71553f1461019f578063734e6308146102cb5780639f1d1a5d14610317575b600080fd5b610185600480360360808110156100ae57600080fd5b81019080803573ffffffffffffffffffffffffffffffffffffffff1690602001909291908035906020019092919080359060200190929190803590602001906401000000008111156100ff57600080fd5b82018360208201111561011157600080fd5b8035906020019184600183028401116401000000008311171561013357600080fd5b91908080601f016020809104026020016040519081016040528093929190818152602001838380828437600081840152601f19601f8201169050808301925050505050505091929192905050506106aa565b604051808215151515815260200191505060405180910390f35b6101cb600480360360208110156101b557600080fd5b810190808035906020019092919050505061070a565b60405180868152602001806020018060200185151515158152602001848152602001838103835287818151815260200191508051906020019080838360005b8381101561022557808201518184015260208101905061020a565b50505050905090810190601f1680156102525780820380516001836020036101000a031916815260200191505b50838103825286818151815260200191508051906020019080838360005b8381101561028b578082015181840152602081019050610270565b50505050905090810190601f1680156102b85780820380516001836020036101000a031916815260200191505b5097505050505050505060405180910390f35b610301600480360360408110156102e157600080fd5b81019080803590602001909291908035906020019092919050505061087d565b6040518082815260200191505060405180910390f35b61031f6108b6565b604051808273ffffffffffffffffffffffffffffffffffffffff1673ffffffffffffffffffffffffffffffffffffffff16815260200191505060405180910390f35b61038d6004803603602081101561037757600080fd5b81019080803590602001909291905050506108dc565b6040518082815260200191505060405180910390f35b610490600480360360808110156103b957600080fd5b8101908080359060200190929190803573ffffffffffffffffffffffffffffffffffffffff169060200190929190803590602001909291908035906020019064010000000081111561040a57600080fd5b82018360208201111561041c57600080fd5b8035906020019184600183028401116401000000008311171561043e57600080fd5b91908080601f016020809104026020016040519081016040528093929190818152602001838380828437600081840152601f19601f8201169050808301925050505050505091929192905050506108f4565b005b6105e2600480360360408110156104a857600080fd5b81019080803590602001906401000000008111156104c557600080fd5b8201836020820111156104d757600080fd5b803590602001918460018302840111640100000000831117156104f957600080fd5b91908080601f016020809104026020016040519081016040528093929190818152602001838380828437600081840152601f19601f8201169050808301925050505050505091929192908035906020019064010000000081111561055c57600080fd5b82018360208201111561056e57600080fd5b8035906020019184600183028401116401000000008311171561059057600080fd5b91908080601f016020809104026020016040519081016040528093929190818152602001838380828437600081840152601f19601f820116905080830192505050505050509192919290505050610ccf565b005b61063a600480360360608110156105fa57600080fd5b8101908080359060200190929190803573ffffffffffffffffffffffffffffffffffffffff16906020019092919080359060200190929190505050610da7565b005b6106686004803603602081101561065257600080fd5b810190808035906020019092919050505061121a565b604051808273ffffffffffffffffffffffffffffffffffffffff1673ffffffffffffffffffffffffffffffffffffffff16815260200191505060405180910390f35b6000806106b7858561087d565b905060006106c48261124d565b90508673ffffffffffffffffffffffffffffffffffffffff166106e782866112a5565b73ffffffffffffffffffffffffffffffffffffffff161492505050949350505050565b6002602052806000526040600020600091509050806000015490806001018054600181600116156101000203166002900480601f0160208091040260200160405190810160405280929190818152602001828054600181600116156101000203166002900480156107bc5780601f10610791576101008083540402835291602001916107bc565b820191906000526020600020905b81548152906001019060200180831161079f57829003601f168201915b505050505090806002018054600181600116156101000203166002900480601f01602080910402602001604051908101604052809291908181526020018280546001816001161561010002031660029004801561085a5780601f1061082f5761010080835404028352916020019161085a565b820191906000526020600020905b81548152906001019060200180831161083d57829003601f168201915b5050505050908060030160009054906101000a900460ff16908060040154905085565b60008282604051602001808381526020018281526020019250505060405160208183030381529060405280519060200120905092915050565b600160009054906101000a900473ffffffffffffffffffffffffffffffffffffffff1681565b60046020528060005260406000206000915090505481565b6108fc611578565b600260008681526020019081526020016000206040518060a001604052908160008201548152602001600182018054600181600116156101000203166002900480601f0160208091040260200160405190810160405280929190818152602001828054600181600116156101000203166002900480156109bd5780601f10610992576101008083540402835291602001916109bd565b820191906000526020600020905b8154815290600101906020018083116109a057829003601f168201915b50505050508152602001600282018054600181600116156101000203166002900480601f016020809104026020016040519081016040528092919081815260200182805460018160011615610100020316600290048015610a5f5780601f10610a3457610100808354040283529160200191610a5f565b820191906000526020600020905b815481529060010190602001808311610a4257829003601f168201915b505050505081526020016003820160009054906101000a900460ff161515151581526020016004820154815250509050600115158160600151151514610b0d576040517f08c379a000000000000000000000000000000000000000000000000000000000815260040180806020018281038252600e8152602001807f424f585f4e4f545f4c4f434b454400000000000000000000000000000000000081525060200191505060405180910390fd5b6000600460008781526020019081526020016000205490506000600160009054906101000a900473ffffffffffffffffffffffffffffffffffffffff1673ffffffffffffffffffffffffffffffffffffffff16636352211e836040518263ffffffff1660e01b81526004018082815260200191505060206040518083038186803b158015610b9a57600080fd5b505afa158015610bae573d6000803e3d6000fd5b505050506040513d6020811015610bc457600080fd5b8101908080519060200190929190505050905060006003600089815260200190815260200160002060009054906101000a900473ffffffffffffffffffffffffffffffffffffffff1690508073ffffffffffffffffffffffffffffffffffffffff168273ffffffffffffffffffffffffffffffffffffffff1614610c4757600080fd5b610c53818988886106aa565b610cc5576040517f08c379a000000000000000000000000000000000000000000000000000000000815260040180806020018281038252600f8152602001807f57524f4e475f5349474e4154555245000000000000000000000000000000000081525060200191505060405180910390fd5b5050505050505050565b610cd96000611352565b6000610ce56000611368565b9050610cef611578565b6040518060a00160405280838152602001858152602001848152602001600015158152602001600081525090508060026000848152602001908152602001600020600082015181600001556020820151816001019080519060200190610d569291906115a9565b506040820151816002019080519060200190610d739291906115a9565b5060608201518160030160006101000a81548160ff0219169083151502179055506080820151816004015590505050505050565b610daf611578565b600260008581526020019081526020016000206040518060a001604052908160008201548152602001600182018054600181600116156101000203166002900480601f016020809104026020016040519081016040528092919081815260200182805460018160011615610100020316600290048015610e705780601f10610e4557610100808354040283529160200191610e70565b820191906000526020600020905b815481529060010190602001808311610e5357829003601f168201915b50505050508152602001600282018054600181600116156101000203166002900480601f016020809104026020016040519081016040528092919081815260200182805460018160011615610100020316600290048015610f125780601f10610ee757610100808354040283529160200191610f12565b820191906000526020600020905b815481529060010190602001808311610ef557829003601f168201915b505050505081526020016003820160009054906101000a900460ff161515151581526020016004820154815250509050600015158160600151151514610fc0576040517f08c379a000000000000000000000000000000000000000000000000000000000815260040180806020018281038252600d8152602001807f424f585f49535f4c4f434b45440000000000000000000000000000000000000081525060200191505060405180910390fd5b6000600160009054906101000a900473ffffffffffffffffffffffffffffffffffffffff1673ffffffffffffffffffffffffffffffffffffffff16636352211e846040518263ffffffff1660e01b81526004018082815260200191505060206040518083038186803b15801561103557600080fd5b505afa158015611049573d6000803e3d6000fd5b505050506040513d602081101561105f57600080fd5b810190808051906020019092919050505090508373ffffffffffffffffffffffffffffffffffffffff168173ffffffffffffffffffffffffffffffffffffffff1614611113576040517f08c379a00000000000000000000000000000000000000000000000000000000081526004018080602001828103825260118152602001807f4b45595f4d5553545f42455f4f574e455200000000000000000000000000000081525060200191505060405180910390fd5b6001826060019015159081151581525050836003600087815260200190815260200160002060006101000a81548173ffffffffffffffffffffffffffffffffffffffff021916908373ffffffffffffffffffffffffffffffffffffffff16021790555081600260008781526020019081526020016000206000820151816000015560208201518160010190805190602001906111b09291906115a9565b5060408201518160020190805190602001906111cd9291906115a9565b5060608201518160030160006101000a81548160ff021916908315150217905550608082015181600401559050508260046000878152602001908152602001600020819055505050505050565b60036020528060005260406000206000915054906101000a900473ffffffffffffffffffffffffffffffffffffffff1681565b60008160405160200180807f19457468657265756d205369676e6564204d6573736167653a0a333200000000815250601c01828152602001915050604051602081830303815290604052805190602001209050919050565b6000604182511461131e576040517f08c379a000000000000000000000000000000000000000000000000000000000815260040180806020018281038252601f8152602001807f45434453413a20696e76616c6964207369676e6174757265206c656e6774680081525060200191505060405180910390fd5b60008060006020850151925060408501519150606085015160001a905061134786828585611376565b935050505092915050565b6001816000016000828254019250508190555050565b600081600001549050919050565b60007f7fffffffffffffffffffffffffffffff5d576e7357a4501ddfe92f46681b20a08260001c11156113f4576040517f08c379a000000000000000000000000000000000000000000000000000000000815260040180806020018281038252602281526020018061164f6022913960400191505060405180910390fd5b601b8460ff1614806114095750601c8460ff16145b61145e576040517f08c379a00000000000000000000000000000000000000000000000000000000081526004018080602001828103825260228152602001806116716022913960400191505060405180910390fd5b600060018686868660405160008152602001604052604051808581526020018460ff1660ff1681526020018381526020018281526020019450505050506020604051602081039080840390855afa1580156114bd573d6000803e3d6000fd5b505050602060405103519050600073ffffffffffffffffffffffffffffffffffffffff168173ffffffffffffffffffffffffffffffffffffffff16141561156c576040517f08c379a00000000000000000000000000000000000000000000000000000000081526004018080602001828103825260188152602001807f45434453413a20696e76616c6964207369676e6174757265000000000000000081525060200191505060405180910390fd5b80915050949350505050565b6040518060a00160405280600081526020016060815260200160608152602001600015158152602001600081525090565b828054600181600116156101000203166002900490600052602060002090601f016020900481019282601f106115ea57805160ff1916838001178555611618565b82800160010185558215611618579182015b828111156116175782518255916020019190600101906115fc565b5b5090506116259190611629565b5090565b61164b91905b8082111561164757600081600090555060010161162f565b5090565b9056fe45434453413a20696e76616c6964207369676e6174757265202773272076616c756545434453413a20696e76616c6964207369676e6174757265202776272076616c7565a2646970667358221220114baaa82655d98e6d6cc3b2be65d3c9f8b32a8564736ba0f0f82370a08cbd0d64736f6c63430006020033",
  "source": "pragma solidity ^0.6.0;\r\n\r\nimport \"@openzeppelin/contracts/token/ERC721/ERC721.sol\";\r\nimport \"@openzeppelin/contracts/utils/Counters.sol\";\r\nimport \"@openzeppelin/contracts/cryptography/ECDSA.sol\";\r\n\r\ncontract Carton {\r\n    using Counters for Counters.Counter;\r\n    Counters.Counter private _boxIds;\r\n    ERC721 public YaytsoInterface;\r\n\r\n    struct Box {\r\n        uint256 id;\r\n        string lat;\r\n        string lon;\r\n        bool locked;\r\n        uint256 nonce;\r\n    }\r\n\r\n    mapping(uint256 => Box) public idToBox;\r\n    mapping(uint256 => address) public idToKey;\r\n    mapping(uint256 => uint256) public boxIdToTokenId;\r\n\r\n    constructor(address _YaytsoAddress) public {\r\n        YaytsoInterface = ERC721(_YaytsoAddress);\r\n    }\r\n\r\n    function createBox(string memory _lat, string memory _lon) public {\r\n        _boxIds.increment();\r\n        uint256 _boxId = _boxIds.current();\r\n        Box memory _box = Box(_boxId, _lat, _lon, false, 0);\r\n        idToBox[_boxId] = _box;\r\n    }\r\n\r\n    function fillBox(\r\n        uint256 _boxId,\r\n        address _key,\r\n        uint256 _tokenId\r\n    ) public {\r\n        Box memory _box = idToBox[_boxId];\r\n        require(_box.locked == false, \"BOX_IS_LOCKED\");\r\n        address _tokenOwner = YaytsoInterface.ownerOf(_tokenId);\r\n        require(_tokenOwner == _key, \"KEY_MUST_BE_OWNER\");\r\n        _box.locked = true;\r\n        idToKey[_boxId] = _key;\r\n        idToBox[_boxId] = _box;\r\n        boxIdToTokenId[_boxId] = _tokenId;\r\n    }\r\n\r\n    function getMessageHash(uint256 _id, uint256 _nonce)\r\n        public\r\n        pure\r\n        returns (bytes32)\r\n    {\r\n        return keccak256(abi.encodePacked(_id, _nonce));\r\n    }\r\n\r\n    function verify(\r\n        address _signer,\r\n        uint256 _id,\r\n        uint256 _nonce,\r\n        bytes memory signature\r\n    ) public pure returns (bool) {\r\n        bytes32 messageHash = getMessageHash(_id, _nonce);\r\n        bytes32 ethSignedMessageHash =\r\n            ECDSA.toEthSignedMessageHash(messageHash);\r\n\r\n        return ECDSA.recover(ethSignedMessageHash, signature) == _signer;\r\n    }\r\n\r\n    function claimYaytso(\r\n        uint256 _boxId,\r\n        address _finder,\r\n        uint256 _nonce,\r\n        bytes memory signature\r\n    ) public {\r\n        Box memory _box = idToBox[_boxId];\r\n        require(_box.locked == true, \"BOX_NOT_LOCKED\");\r\n        uint256 _yaytsoId = boxIdToTokenId[_boxId];\r\n\r\n        address _yaytsoOwner = YaytsoInterface.ownerOf(_yaytsoId);\r\n        address _key = idToKey[_boxId];\r\n\r\n        require(_yaytsoOwner == _key);\r\n\r\n        require(verify(_key, _boxId, _nonce, signature), \"WRONG_SIGNATURE\");\r\n        // YaytsoInterface.transferFrom(msg.sender, _finder, _yaytsoId);\r\n    }\r\n}\r\n",
  "sourcePath": "C:\\Users\\ariel\\yaytso\\contracts\\Carton.sol",
  "compiler": {
    "name": "solc",
    "version": "0.6.2+commit.bacdbe57.Emscripten.clang"
  },
  "schemaVersion": "3.2.0",
  "updatedAt": "2021-05-03T03:22:52.364Z",
  "networkType": "ethereum",
  "devdoc": {
    "methods": {}
  },
  "userdoc": {
    "methods": {}
  }
}