{
  "contractName": "Carton",
  "abi": [
    {
      "inputs": [
        {
          "internalType": "address",
          "name": "_YaytsoAddress",
          "type": "address"
        }
      ],
      "stateMutability": "nonpayable",
      "type": "constructor"
    },
    {
      "anonymous": false,
      "inputs": [
        {
          "indexed": false,
          "internalType": "uint256",
          "name": "id",
          "type": "uint256"
        }
      ],
      "name": "BoxCreated",
      "type": "event"
    },
    {
      "anonymous": false,
      "inputs": [
        {
          "indexed": false,
          "internalType": "uint256",
          "name": "id",
          "type": "uint256"
        },
        {
          "indexed": false,
          "internalType": "uint256",
          "name": "tokenId",
          "type": "uint256"
        },
        {
          "indexed": false,
          "internalType": "uint256",
          "name": "nonce",
          "type": "uint256"
        }
      ],
      "name": "BoxFilled",
      "type": "event"
    },
    {
      "anonymous": false,
      "inputs": [
        {
          "indexed": false,
          "internalType": "uint256",
          "name": "id",
          "type": "uint256"
        },
        {
          "indexed": false,
          "internalType": "uint256",
          "name": "tokenId",
          "type": "uint256"
        },
        {
          "indexed": false,
          "internalType": "address",
          "name": "claimer",
          "type": "address"
        }
      ],
      "name": "YaytsoClaimed",
      "type": "event"
    },
    {
      "inputs": [
        {
          "internalType": "uint256",
          "name": "",
          "type": "uint256"
        }
      ],
      "name": "Boxes",
      "outputs": [
        {
          "internalType": "uint256",
          "name": "id",
          "type": "uint256"
        },
        {
          "internalType": "bytes32",
          "name": "lat",
          "type": "bytes32"
        },
        {
          "internalType": "bytes32",
          "name": "lon",
          "type": "bytes32"
        },
        {
          "internalType": "bool",
          "name": "locked",
          "type": "bool"
        },
        {
          "internalType": "bool",
          "name": "created",
          "type": "bool"
        },
        {
          "internalType": "uint256",
          "name": "nonce",
          "type": "uint256"
        }
      ],
      "stateMutability": "view",
      "type": "function",
      "constant": true
    },
    {
      "inputs": [],
      "name": "YaytsoInterface",
      "outputs": [
        {
          "internalType": "contract ERC721",
          "name": "",
          "type": "address"
        }
      ],
      "stateMutability": "view",
      "type": "function",
      "constant": true
    },
    {
      "inputs": [
        {
          "internalType": "uint256",
          "name": "",
          "type": "uint256"
        }
      ],
      "name": "boxIdToTokenId",
      "outputs": [
        {
          "internalType": "uint256",
          "name": "",
          "type": "uint256"
        }
      ],
      "stateMutability": "view",
      "type": "function",
      "constant": true
    },
    {
      "inputs": [
        {
          "internalType": "uint256",
          "name": "",
          "type": "uint256"
        }
      ],
      "name": "idToKey",
      "outputs": [
        {
          "internalType": "address",
          "name": "",
          "type": "address"
        }
      ],
      "stateMutability": "view",
      "type": "function",
      "constant": true
    },
    {
      "inputs": [
        {
          "internalType": "bytes32",
          "name": "_lat",
          "type": "bytes32"
        },
        {
          "internalType": "bytes32",
          "name": "_lon",
          "type": "bytes32"
        }
      ],
      "name": "createBox",
      "outputs": [],
      "stateMutability": "nonpayable",
      "type": "function"
    },
    {
      "inputs": [
        {
          "internalType": "uint256",
          "name": "_boxId",
          "type": "uint256"
        },
        {
          "internalType": "address",
          "name": "_key",
          "type": "address"
        },
        {
          "internalType": "uint256",
          "name": "_tokenId",
          "type": "uint256"
        }
      ],
      "name": "fillBox",
      "outputs": [],
      "stateMutability": "nonpayable",
      "type": "function"
    },
    {
      "inputs": [
        {
          "internalType": "uint256",
          "name": "_id",
          "type": "uint256"
        },
        {
          "internalType": "uint256",
          "name": "_nonce",
          "type": "uint256"
        }
      ],
      "name": "getMessageHash",
      "outputs": [
        {
          "internalType": "bytes32",
          "name": "",
          "type": "bytes32"
        }
      ],
      "stateMutability": "pure",
      "type": "function",
      "constant": true
    },
    {
      "inputs": [
        {
          "internalType": "address",
          "name": "_signer",
          "type": "address"
        },
        {
          "internalType": "uint256",
          "name": "_id",
          "type": "uint256"
        },
        {
          "internalType": "uint256",
          "name": "_nonce",
          "type": "uint256"
        },
        {
          "internalType": "bytes",
          "name": "signature",
          "type": "bytes"
        }
      ],
      "name": "verify",
      "outputs": [
        {
          "internalType": "bool",
          "name": "",
          "type": "bool"
        }
      ],
      "stateMutability": "pure",
      "type": "function",
      "constant": true
    },
    {
      "inputs": [
        {
          "internalType": "uint256",
          "name": "_boxId",
          "type": "uint256"
        },
        {
          "internalType": "uint256",
          "name": "_nonce",
          "type": "uint256"
        },
        {
          "internalType": "bytes",
          "name": "signature",
          "type": "bytes"
        }
      ],
      "name": "claimYaytso",
      "outputs": [],
      "stateMutability": "nonpayable",
      "type": "function"
    }
  ],
  "bytecode": "0x608060405234801561001057600080fd5b506040516116d53803806116d58339818101604052602081101561003357600080fd5b810190808051906020019092919050505080600160006101000a81548173ffffffffffffffffffffffffffffffffffffffff021916908373ffffffffffffffffffffffffffffffffffffffff16021790555050611640806100956000396000f3fe608060405234801561001057600080fd5b50600436106100935760003560e01c80639f1d1a5d116100665780639f1d1a5d146102f2578063a932adda1461033c578063adf71004146103a9578063f581d6c9146103eb578063fd8fdbe11461044357610093565b806308b49a6c146100985780630deea608146100d05780635d6f5c12146101d7578063734e6308146102a6575b600080fd5b6100ce600480360360408110156100ae57600080fd5b8101908080359060200190929190803590602001909291905050506104b1565b005b6101bd600480360360808110156100e657600080fd5b81019080803573ffffffffffffffffffffffffffffffffffffffff16906020019092919080359060200190929190803590602001909291908035906020019064010000000081111561013757600080fd5b82018360208201111561014957600080fd5b8035906020019184600183028401116401000000008311171561016b57600080fd5b91908080601f016020809104026020016040519081016040528093929190818152602001838380828437600081840152601f19601f8201169050808301925050505050505091929192905050506105c3565b604051808215151515815260200191505060405180910390f35b6102a4600480360360608110156101ed57600080fd5b8101908080359060200190929190803590602001909291908035906020019064010000000081111561021e57600080fd5b82018360208201111561023057600080fd5b8035906020019184600183028401116401000000008311171561025257600080fd5b91908080601f016020809104026020016040519081016040528093929190818152602001838380828437600081840152601f19601f820116905080830192505050505050509192919290505050610623565b005b6102dc600480360360408110156102bc57600080fd5b810190808035906020019092919080359060200190929190505050610bdb565b6040518082815260200191505060405180910390f35b6102fa610c14565b604051808273ffffffffffffffffffffffffffffffffffffffff1673ffffffffffffffffffffffffffffffffffffffff16815260200191505060405180910390f35b6103686004803603602081101561035257600080fd5b8101908080359060200190929190505050610c3a565b604051808781526020018681526020018581526020018415151515815260200183151515158152602001828152602001965050505050505060405180910390f35b6103d5600480360360208110156103bf57600080fd5b8101908080359060200190929190505050610c90565b6040518082815260200191505060405180910390f35b6104416004803603606081101561040157600080fd5b8101908080359060200190929190803573ffffffffffffffffffffffffffffffffffffffff16906020019092919080359060200190929190505050610ca8565b005b61046f6004803603602081101561045957600080fd5b8101908080359060200190929190505050611228565b604051808273ffffffffffffffffffffffffffffffffffffffff1673ffffffffffffffffffffffffffffffffffffffff16815260200191505060405180910390f35b6104bb600061125b565b60006104c76000611271565b90506104d1611586565b6040518060c0016040528083815260200185815260200184815260200160001515815260200160011515815260200160008152509050806002600084815260200190815260200160002060008201518160000155602082015181600101556040820151816002015560608201518160030160006101000a81548160ff02191690831515021790555060808201518160030160016101000a81548160ff02191690831515021790555060a082015181600401559050507fd0906fb7bf0c1e8ccf09acc6a39d92d8f0f9d6905412c61af116ac69d602ff8b826040518082815260200191505060405180910390a150505050565b6000806105d08585610bdb565b905060006105dd8261127f565b90508673ffffffffffffffffffffffffffffffffffffffff1661060082866112d7565b73ffffffffffffffffffffffffffffffffffffffff161492505050949350505050565b61062b611586565b600260008581526020019081526020016000206040518060c00160405290816000820154815260200160018201548152602001600282015481526020016003820160009054906101000a900460ff161515151581526020016003820160019054906101000a900460ff1615151515815260200160048201548152505090508060a001518314610722576040517f08c379a000000000000000000000000000000000000000000000000000000000815260040180806020018281038252600e8152602001807f4e4f4e43455f4d49534d4154434800000000000000000000000000000000000081525060200191505060405180910390fd5b6001151581606001511515146107a0576040517f08c379a000000000000000000000000000000000000000000000000000000000815260040180806020018281038252600e8152602001807f424f585f4e4f545f4c4f434b454400000000000000000000000000000000000081525060200191505060405180910390fd5b60006003600086815260200190815260200160002060009054906101000a900473ffffffffffffffffffffffffffffffffffffffff1690506107e4818686866105c3565b610856576040517f08c379a000000000000000000000000000000000000000000000000000000000815260040180806020018281038252600d8152602001807f494e56414c49445f434c41494d0000000000000000000000000000000000000081525060200191505060405180910390fd5b6000600460008781526020019081526020016000205490506000600160009054906101000a900473ffffffffffffffffffffffffffffffffffffffff1673ffffffffffffffffffffffffffffffffffffffff16636352211e836040518263ffffffff1660e01b81526004018082815260200191505060206040518083038186803b1580156108e357600080fd5b505afa1580156108f7573d6000803e3d6000fd5b505050506040513d602081101561090d57600080fd5b810190808051906020019092919050505090508273ffffffffffffffffffffffffffffffffffffffff168173ffffffffffffffffffffffffffffffffffffffff16146109c1576040517f08c379a00000000000000000000000000000000000000000000000000000000081526004018080602001828103825260138152602001807f5349474e41545552455f4e4f545f4f574e45520000000000000000000000000081525060200191505060405180910390fd5b600160009054906101000a900473ffffffffffffffffffffffffffffffffffffffff1673ffffffffffffffffffffffffffffffffffffffff166323b872dd8433856040518463ffffffff1660e01b8152600401808473ffffffffffffffffffffffffffffffffffffffff1673ffffffffffffffffffffffffffffffffffffffff1681526020018373ffffffffffffffffffffffffffffffffffffffff1673ffffffffffffffffffffffffffffffffffffffff1681526020018281526020019350505050600060405180830381600087803b158015610a9e57600080fd5b505af1158015610ab2573d6000803e3d6000fd5b50505050600084606001901515908115158152505060006004600089815260200190815260200160002081905550836002600089815260200190815260200160002060008201518160000155602082015181600101556040820151816002015560608201518160030160006101000a81548160ff02191690831515021790555060808201518160030160016101000a81548160ff02191690831515021790555060a082015181600401559050507f58c41fceed456ac0daeaaf52d61c562a1a2a991db9972f848cea0aca54da33d7878333604051808481526020018381526020018273ffffffffffffffffffffffffffffffffffffffff1673ffffffffffffffffffffffffffffffffffffffff168152602001935050505060405180910390a150505050505050565b60008282604051602001808381526020018281526020019250505060405160208183030381529060405280519060200120905092915050565b600160009054906101000a900473ffffffffffffffffffffffffffffffffffffffff1681565b60026020528060005260406000206000915090508060000154908060010154908060020154908060030160009054906101000a900460ff16908060030160019054906101000a900460ff16908060040154905086565b60046020528060005260406000206000915090505481565b610cb0611586565b600260008581526020019081526020016000206040518060c00160405290816000820154815260200160018201548152602001600282015481526020016003820160009054906101000a900460ff161515151581526020016003820160019054906101000a900460ff161515151581526020016004820154815250509050600115158160800151151514610dac576040517f08c379a000000000000000000000000000000000000000000000000000000000815260040180806020018281038252600d8152602001807f424f585f4e4f545f45584953540000000000000000000000000000000000000081525060200191505060405180910390fd5b600015158160600151151514610e2a576040517f08c379a000000000000000000000000000000000000000000000000000000000815260040180806020018281038252600d8152602001807f424f585f49535f4c4f434b45440000000000000000000000000000000000000081525060200191505060405180910390fd5b6000600160009054906101000a900473ffffffffffffffffffffffffffffffffffffffff1673ffffffffffffffffffffffffffffffffffffffff16636352211e846040518263ffffffff1660e01b81526004018082815260200191505060206040518083038186803b158015610e9f57600080fd5b505afa158015610eb3573d6000803e3d6000fd5b505050506040513d6020811015610ec957600080fd5b810190808051906020019092919050505090508373ffffffffffffffffffffffffffffffffffffffff168173ffffffffffffffffffffffffffffffffffffffff1614610f7d576040517f08c379a00000000000000000000000000000000000000000000000000000000081526004018080602001828103825260118152602001807f4b45595f4d5553545f42455f4f574e455200000000000000000000000000000081525060200191505060405180910390fd5b3073ffffffffffffffffffffffffffffffffffffffff16600160009054906101000a900473ffffffffffffffffffffffffffffffffffffffff1673ffffffffffffffffffffffffffffffffffffffff1663081812fc856040518263ffffffff1660e01b81526004018082815260200191505060206040518083038186803b15801561100757600080fd5b505afa15801561101b573d6000803e3d6000fd5b505050506040513d602081101561103157600080fd5b810190808051906020019092919050505073ffffffffffffffffffffffffffffffffffffffff16146110cb576040517f08c379a00000000000000000000000000000000000000000000000000000000081526004018080602001828103825260178152602001807f434152544f4e5f4d5553545f42455f415050524f56454400000000000000000081525060200191505060405180910390fd5b600182606001901515908115158152505060018260a0018181510191508181525050836003600087815260200190815260200160002060006101000a81548173ffffffffffffffffffffffffffffffffffffffff021916908373ffffffffffffffffffffffffffffffffffffffff160217905550816002600087815260200190815260200160002060008201518160000155602082015181600101556040820151816002015560608201518160030160006101000a81548160ff02191690831515021790555060808201518160030160016101000a81548160ff02191690831515021790555060a082015181600401559050508260046000878152602001908152602001600020819055507f4507790fe1ed7b8fc85199b4804e75e47b2f0ef6a97e351c4a6599fe824ef9a585848460a0015160405180848152602001838152602001828152602001935050505060405180910390a15050505050565b60036020528060005260406000206000915054906101000a900473ffffffffffffffffffffffffffffffffffffffff1681565b6001816000016000828254019250508190555050565b600081600001549050919050565b60008160405160200180807f19457468657265756d205369676e6564204d6573736167653a0a333200000000815250601c01828152602001915050604051602081830303815290604052805190602001209050919050565b60006041825114611350576040517f08c379a000000000000000000000000000000000000000000000000000000000815260040180806020018281038252601f8152602001807f45434453413a20696e76616c6964207369676e6174757265206c656e6774680081525060200191505060405180910390fd5b60008060006020850151925060408501519150606085015160001a905061137986828585611384565b935050505092915050565b60007f7fffffffffffffffffffffffffffffff5d576e7357a4501ddfe92f46681b20a08260001c1115611402576040517f08c379a00000000000000000000000000000000000000000000000000000000081526004018080602001828103825260228152602001806115c76022913960400191505060405180910390fd5b601b8460ff1614806114175750601c8460ff16145b61146c576040517f08c379a00000000000000000000000000000000000000000000000000000000081526004018080602001828103825260228152602001806115e96022913960400191505060405180910390fd5b600060018686868660405160008152602001604052604051808581526020018460ff1660ff1681526020018381526020018281526020019450505050506020604051602081039080840390855afa1580156114cb573d6000803e3d6000fd5b505050602060405103519050600073ffffffffffffffffffffffffffffffffffffffff168173ffffffffffffffffffffffffffffffffffffffff16141561157a576040517f08c379a00000000000000000000000000000000000000000000000000000000081526004018080602001828103825260188152602001807f45434453413a20696e76616c6964207369676e6174757265000000000000000081525060200191505060405180910390fd5b80915050949350505050565b6040518060c0016040528060008152602001600080191681526020016000801916815260200160001515815260200160001515815260200160008152509056fe45434453413a20696e76616c6964207369676e6174757265202773272076616c756545434453413a20696e76616c6964207369676e6174757265202776272076616c7565a26469706673582212206bde2890d954fde22b1621efab3c8e6f3bfbc26a43aaa2abe3bf2f6d0367f43364736f6c63430006020033",
  "source": "pragma solidity ^0.6.0;\r\n\r\nimport \"@openzeppelin/contracts/token/ERC721/ERC721.sol\";\r\nimport \"@openzeppelin/contracts/utils/Counters.sol\";\r\nimport \"@openzeppelin/contracts/cryptography/ECDSA.sol\";\r\n\r\ncontract Carton {\r\n    using Counters for Counters.Counter;\r\n    Counters.Counter private _boxIds;\r\n    ERC721 public YaytsoInterface;\r\n\r\n    struct Box {\r\n        uint256 id;\r\n        bytes32 lat;\r\n        bytes32 lon;\r\n        bool locked;\r\n        bool created;\r\n        uint256 nonce;\r\n    }\r\n\r\n    mapping(uint256 => Box) public Boxes;\r\n    mapping(uint256 => address) public idToKey;\r\n    mapping(uint256 => uint256) public boxIdToTokenId;\r\n\r\n    event BoxCreated(uint256 id);\r\n    event BoxFilled(uint256 id, uint256 tokenId, uint256 nonce);\r\n    event YaytsoClaimed(uint256 id, uint256 tokenId, address claimer);\r\n\r\n    constructor(address _YaytsoAddress) public {\r\n        YaytsoInterface = ERC721(_YaytsoAddress);\r\n    }\r\n\r\n    function createBox(bytes32 _lat, bytes32 _lon) public {\r\n        _boxIds.increment();\r\n        uint256 _boxId = _boxIds.current();\r\n        Box memory _box = Box(_boxId, _lat, _lon, false, true, 0);\r\n        Boxes[_boxId] = _box;\r\n        emit BoxCreated(_boxId);\r\n    }\r\n\r\n    function fillBox(\r\n        uint256 _boxId,\r\n        address _key,\r\n        uint256 _tokenId\r\n    ) public {\r\n        Box memory _box = Boxes[_boxId];\r\n        require(_box.created == true, \"BOX_NOT_EXIST\");\r\n        require(_box.locked == false, \"BOX_IS_LOCKED\");\r\n        address _tokenOwner = YaytsoInterface.ownerOf(_tokenId);\r\n        require(_tokenOwner == _key, \"KEY_MUST_BE_OWNER\");\r\n        require(\r\n            YaytsoInterface.getApproved(_tokenId) == address(this),\r\n            \"CARTON_MUST_BE_APPROVED\"\r\n        );\r\n        _box.locked = true;\r\n        _box.nonce += 1;\r\n        idToKey[_boxId] = _key;\r\n        Boxes[_boxId] = _box;\r\n        boxIdToTokenId[_boxId] = _tokenId;\r\n        emit BoxFilled(_boxId, _tokenId, _box.nonce);\r\n    }\r\n\r\n    function getMessageHash(uint256 _id, uint256 _nonce)\r\n        public\r\n        pure\r\n        returns (bytes32)\r\n    {\r\n        return keccak256(abi.encodePacked(_id, _nonce));\r\n    }\r\n\r\n    function verify(\r\n        address _signer,\r\n        uint256 _id,\r\n        uint256 _nonce,\r\n        bytes memory signature\r\n    ) public pure returns (bool) {\r\n        bytes32 messageHash = getMessageHash(_id, _nonce);\r\n        bytes32 ethSignedMessageHash =\r\n            ECDSA.toEthSignedMessageHash(messageHash);\r\n\r\n        return ECDSA.recover(ethSignedMessageHash, signature) == _signer;\r\n    }\r\n\r\n    function claimYaytso(\r\n        uint256 _boxId,\r\n        uint256 _nonce,\r\n        bytes memory signature\r\n    ) public {\r\n        Box memory _box = Boxes[_boxId];\r\n        require(_nonce == _box.nonce, \"NONCE_MISMATCH\");\r\n        require(_box.locked == true, \"BOX_NOT_LOCKED\");\r\n        address _key = idToKey[_boxId];\r\n        require(verify(_key, _boxId, _nonce, signature), \"INVALID_CLAIM\");\r\n        uint256 _yaytsoId = boxIdToTokenId[_boxId];\r\n        address _yaytsoOwner = YaytsoInterface.ownerOf(_yaytsoId);\r\n        require(_yaytsoOwner == _key, \"SIGNATURE_NOT_OWNER\");\r\n        YaytsoInterface.transferFrom(_key, msg.sender, _yaytsoId);\r\n        _box.locked = false;\r\n        boxIdToTokenId[_boxId] = 0;\r\n        Boxes[_boxId] = _box;\r\n        emit YaytsoClaimed(_boxId, _yaytsoId, msg.sender);\r\n    }\r\n}\r\n",
  "sourcePath": "C:\\Users\\ariel\\yaytso\\contracts\\Carton.sol",
  "compiler": {
    "name": "solc",
    "version": "0.6.2+commit.bacdbe57.Emscripten.clang"
  },
  "schemaVersion": "3.2.0",
  "updatedAt": "2021-06-25T22:12:08.542Z",
  "networkType": "ethereum",
  "devdoc": {
    "methods": {}
  },
  "userdoc": {
    "methods": {}
  }
}