{
  "contractName": "YaytsoV2",
  "abi": [
    {
      "inputs": [],
      "stateMutability": "nonpayable",
      "type": "constructor"
    },
    {
      "anonymous": false,
      "inputs": [
        {
          "indexed": true,
          "internalType": "address",
          "name": "owner",
          "type": "address"
        },
        {
          "indexed": true,
          "internalType": "address",
          "name": "approved",
          "type": "address"
        },
        {
          "indexed": true,
          "internalType": "uint256",
          "name": "tokenId",
          "type": "uint256"
        }
      ],
      "name": "Approval",
      "type": "event"
    },
    {
      "anonymous": false,
      "inputs": [
        {
          "indexed": true,
          "internalType": "address",
          "name": "owner",
          "type": "address"
        },
        {
          "indexed": true,
          "internalType": "address",
          "name": "operator",
          "type": "address"
        },
        {
          "indexed": false,
          "internalType": "bool",
          "name": "approved",
          "type": "bool"
        }
      ],
      "name": "ApprovalForAll",
      "type": "event"
    },
    {
      "anonymous": false,
      "inputs": [
        {
          "indexed": true,
          "internalType": "address",
          "name": "from",
          "type": "address"
        },
        {
          "indexed": true,
          "internalType": "address",
          "name": "to",
          "type": "address"
        },
        {
          "indexed": true,
          "internalType": "uint256",
          "name": "tokenId",
          "type": "uint256"
        }
      ],
      "name": "Transfer",
      "type": "event"
    },
    {
      "anonymous": false,
      "inputs": [
        {
          "indexed": true,
          "internalType": "address",
          "name": "_recipient",
          "type": "address"
        },
        {
          "indexed": false,
          "internalType": "uint256",
          "name": "_tokenId",
          "type": "uint256"
        }
      ],
      "name": "YaytsoMinted",
      "type": "event"
    },
    {
      "inputs": [
        {
          "internalType": "address",
          "name": "to",
          "type": "address"
        },
        {
          "internalType": "uint256",
          "name": "tokenId",
          "type": "uint256"
        }
      ],
      "name": "approve",
      "outputs": [],
      "stateMutability": "nonpayable",
      "type": "function"
    },
    {
      "inputs": [
        {
          "internalType": "address",
          "name": "owner",
          "type": "address"
        }
      ],
      "name": "balanceOf",
      "outputs": [
        {
          "internalType": "uint256",
          "name": "",
          "type": "uint256"
        }
      ],
      "stateMutability": "view",
      "type": "function",
      "constant": true
    },
    {
      "inputs": [],
      "name": "baseURI",
      "outputs": [
        {
          "internalType": "string",
          "name": "",
          "type": "string"
        }
      ],
      "stateMutability": "view",
      "type": "function",
      "constant": true
    },
    {
      "inputs": [
        {
          "internalType": "uint256",
          "name": "tokenId",
          "type": "uint256"
        }
      ],
      "name": "getApproved",
      "outputs": [
        {
          "internalType": "address",
          "name": "",
          "type": "address"
        }
      ],
      "stateMutability": "view",
      "type": "function",
      "constant": true
    },
    {
      "inputs": [
        {
          "internalType": "uint256",
          "name": "",
          "type": "uint256"
        }
      ],
      "name": "idToPattern",
      "outputs": [
        {
          "internalType": "bytes32",
          "name": "",
          "type": "bytes32"
        }
      ],
      "stateMutability": "view",
      "type": "function",
      "constant": true
    },
    {
      "inputs": [
        {
          "internalType": "address",
          "name": "owner",
          "type": "address"
        },
        {
          "internalType": "address",
          "name": "operator",
          "type": "address"
        }
      ],
      "name": "isApprovedForAll",
      "outputs": [
        {
          "internalType": "bool",
          "name": "",
          "type": "bool"
        }
      ],
      "stateMutability": "view",
      "type": "function",
      "constant": true
    },
    {
      "inputs": [],
      "name": "name",
      "outputs": [
        {
          "internalType": "string",
          "name": "",
          "type": "string"
        }
      ],
      "stateMutability": "view",
      "type": "function",
      "constant": true
    },
    {
      "inputs": [],
      "name": "owner",
      "outputs": [
        {
          "internalType": "address",
          "name": "",
          "type": "address"
        }
      ],
      "stateMutability": "view",
      "type": "function",
      "constant": true
    },
    {
      "inputs": [
        {
          "internalType": "uint256",
          "name": "tokenId",
          "type": "uint256"
        }
      ],
      "name": "ownerOf",
      "outputs": [
        {
          "internalType": "address",
          "name": "",
          "type": "address"
        }
      ],
      "stateMutability": "view",
      "type": "function",
      "constant": true
    },
    {
      "inputs": [
        {
          "internalType": "address",
          "name": "from",
          "type": "address"
        },
        {
          "internalType": "address",
          "name": "to",
          "type": "address"
        },
        {
          "internalType": "uint256",
          "name": "tokenId",
          "type": "uint256"
        }
      ],
      "name": "safeTransferFrom",
      "outputs": [],
      "stateMutability": "nonpayable",
      "type": "function"
    },
    {
      "inputs": [
        {
          "internalType": "address",
          "name": "from",
          "type": "address"
        },
        {
          "internalType": "address",
          "name": "to",
          "type": "address"
        },
        {
          "internalType": "uint256",
          "name": "tokenId",
          "type": "uint256"
        },
        {
          "internalType": "bytes",
          "name": "_data",
          "type": "bytes"
        }
      ],
      "name": "safeTransferFrom",
      "outputs": [],
      "stateMutability": "nonpayable",
      "type": "function"
    },
    {
      "inputs": [
        {
          "internalType": "address",
          "name": "operator",
          "type": "address"
        },
        {
          "internalType": "bool",
          "name": "approved",
          "type": "bool"
        }
      ],
      "name": "setApprovalForAll",
      "outputs": [],
      "stateMutability": "nonpayable",
      "type": "function"
    },
    {
      "inputs": [
        {
          "internalType": "bytes4",
          "name": "interfaceId",
          "type": "bytes4"
        }
      ],
      "name": "supportsInterface",
      "outputs": [
        {
          "internalType": "bool",
          "name": "",
          "type": "bool"
        }
      ],
      "stateMutability": "view",
      "type": "function",
      "constant": true
    },
    {
      "inputs": [],
      "name": "symbol",
      "outputs": [
        {
          "internalType": "string",
          "name": "",
          "type": "string"
        }
      ],
      "stateMutability": "view",
      "type": "function",
      "constant": true
    },
    {
      "inputs": [
        {
          "internalType": "uint256",
          "name": "index",
          "type": "uint256"
        }
      ],
      "name": "tokenByIndex",
      "outputs": [
        {
          "internalType": "uint256",
          "name": "",
          "type": "uint256"
        }
      ],
      "stateMutability": "view",
      "type": "function",
      "constant": true
    },
    {
      "inputs": [
        {
          "internalType": "address",
          "name": "owner",
          "type": "address"
        },
        {
          "internalType": "uint256",
          "name": "index",
          "type": "uint256"
        }
      ],
      "name": "tokenOfOwnerByIndex",
      "outputs": [
        {
          "internalType": "uint256",
          "name": "",
          "type": "uint256"
        }
      ],
      "stateMutability": "view",
      "type": "function",
      "constant": true
    },
    {
      "inputs": [
        {
          "internalType": "uint256",
          "name": "tokenId",
          "type": "uint256"
        }
      ],
      "name": "tokenURI",
      "outputs": [
        {
          "internalType": "string",
          "name": "",
          "type": "string"
        }
      ],
      "stateMutability": "view",
      "type": "function",
      "constant": true
    },
    {
      "inputs": [],
      "name": "totalSupply",
      "outputs": [
        {
          "internalType": "uint256",
          "name": "",
          "type": "uint256"
        }
      ],
      "stateMutability": "view",
      "type": "function",
      "constant": true
    },
    {
      "inputs": [
        {
          "internalType": "address",
          "name": "from",
          "type": "address"
        },
        {
          "internalType": "address",
          "name": "to",
          "type": "address"
        },
        {
          "internalType": "uint256",
          "name": "tokenId",
          "type": "uint256"
        }
      ],
      "name": "transferFrom",
      "outputs": [],
      "stateMutability": "nonpayable",
      "type": "function"
    },
    {
      "inputs": [
        {
          "internalType": "bytes32",
          "name": "_patternHash",
          "type": "bytes32"
        }
      ],
      "name": "checkDupe",
      "outputs": [
        {
          "internalType": "bool",
          "name": "",
          "type": "bool"
        }
      ],
      "stateMutability": "view",
      "type": "function",
      "constant": true
    },
    {
      "inputs": [
        {
          "internalType": "address",
          "name": "_recipient",
          "type": "address"
        },
        {
          "internalType": "bytes32",
          "name": "_patternHash",
          "type": "bytes32"
        },
        {
          "internalType": "string",
          "name": "_tokenURI",
          "type": "string"
        }
      ],
      "name": "mintEgg",
      "outputs": [],
      "stateMutability": "payable",
      "type": "function",
      "payable": true
    }
  ],
  "bytecode": "0x60806040523480156200001157600080fd5b506040518060400160405280600681526020017f79617974736f00000000000000000000000000000000000000000000000000008152506040518060400160405280600881526020017fd18fd0b9d186d0be000000000000000000000000000000000000000000000000815250620000966301ffc9a760e01b6200019f60201b60201c565b8160069080519060200190620000ae929190620002c4565b508060079080519060200190620000c7929190620002c4565b50620000e06380ac58cd60e01b6200019f60201b60201c565b620000f8635b5e139f60e01b6200019f60201b60201c565b6200011063780e9d6360e01b6200019f60201b60201c565b505033600b60006101000a81548173ffffffffffffffffffffffffffffffffffffffff021916908373ffffffffffffffffffffffffffffffffffffffff160217905550620001996040518060400160405280600781526020017f697066733a2f2f00000000000000000000000000000000000000000000000000815250620002a860201b60201c565b62000373565b63ffffffff60e01b817bffffffffffffffffffffffffffffffffffffffffffffffffffffffff191614156200023c576040517f08c379a000000000000000000000000000000000000000000000000000000000815260040180806020018281038252601c8152602001807f4552433136353a20696e76616c696420696e746572666163652069640000000081525060200191505060405180910390fd5b6001600080837bffffffffffffffffffffffffffffffffffffffffffffffffffffffff19167bffffffffffffffffffffffffffffffffffffffffffffffffffffffff1916815260200190815260200160002060006101000a81548160ff02191690831515021790555050565b8060099080519060200190620002c0929190620002c4565b5050565b828054600181600116156101000203166002900490600052602060002090601f016020900481019282601f106200030757805160ff191683800117855562000338565b8280016001018555821562000338579182015b82811115620003375782518255916020019190600101906200031a565b5b5090506200034791906200034b565b5090565b6200037091905b808211156200036c57600081600090555060010162000352565b5090565b90565b612f6980620003836000396000f3fe60806040526004361061012a5760003560e01c80636352211e116100ab5780638da5cb5b1161006f5780638da5cb5b146107dd57806395d89b4114610834578063a22cb465146108c4578063b88d4fde14610921578063c87b56dd14610a33578063e985e9c514610ae75761012a565b80636352211e1461053957806363543ed7146105b45780636c0360eb1461060357806370a08231146106935780637f616bf4146106f85761012a565b806323b872dd116100f257806323b872dd1461033257806323efa5ba146103ad5780632f745c591461040057806342842e0e1461046f5780634f6ccce7146104ea5761012a565b806301ffc9a71461012f57806306fdde03146101a1578063081812fc14610231578063095ea7b3146102ac57806318160ddd14610307575b600080fd5b34801561013b57600080fd5b506101876004803603602081101561015257600080fd5b8101908080357bffffffffffffffffffffffffffffffffffffffffffffffffffffffff19169060200190929190505050610b70565b604051808215151515815260200191505060405180910390f35b3480156101ad57600080fd5b506101b6610bd7565b6040518080602001828103825283818151815260200191508051906020019080838360005b838110156101f65780820151818401526020810190506101db565b50505050905090810190601f1680156102235780820380516001836020036101000a031916815260200191505b509250505060405180910390f35b34801561023d57600080fd5b5061026a6004803603602081101561025457600080fd5b8101908080359060200190929190505050610c79565b604051808273ffffffffffffffffffffffffffffffffffffffff1673ffffffffffffffffffffffffffffffffffffffff16815260200191505060405180910390f35b3480156102b857600080fd5b50610305600480360360408110156102cf57600080fd5b81019080803573ffffffffffffffffffffffffffffffffffffffff16906020019092919080359060200190929190505050610d14565b005b34801561031357600080fd5b5061031c610e58565b6040518082815260200191505060405180910390f35b34801561033e57600080fd5b506103ab6004803603606081101561035557600080fd5b81019080803573ffffffffffffffffffffffffffffffffffffffff169060200190929190803573ffffffffffffffffffffffffffffffffffffffff16906020019092919080359060200190929190505050610e69565b005b3480156103b957600080fd5b506103e6600480360360208110156103d057600080fd5b8101908080359060200190929190505050610edf565b604051808215151515815260200191505060405180910390f35b34801561040c57600080fd5b506104596004803603604081101561042357600080fd5b81019080803573ffffffffffffffffffffffffffffffffffffffff16906020019092919080359060200190929190505050610f3a565b6040518082815260200191505060405180910390f35b34801561047b57600080fd5b506104e86004803603606081101561049257600080fd5b81019080803573ffffffffffffffffffffffffffffffffffffffff169060200190929190803573ffffffffffffffffffffffffffffffffffffffff16906020019092919080359060200190929190505050610f95565b005b3480156104f657600080fd5b506105236004803603602081101561050d57600080fd5b8101908080359060200190929190505050610fb5565b6040518082815260200191505060405180910390f35b34801561054557600080fd5b506105726004803603602081101561055c57600080fd5b8101908080359060200190929190505050610fd8565b604051808273ffffffffffffffffffffffffffffffffffffffff1673ffffffffffffffffffffffffffffffffffffffff16815260200191505060405180910390f35b3480156105c057600080fd5b506105ed600480360360208110156105d757600080fd5b810190808035906020019092919050505061100f565b6040518082815260200191505060405180910390f35b34801561060f57600080fd5b50610618611027565b6040518080602001828103825283818151815260200191508051906020019080838360005b8381101561065857808201518184015260208101905061063d565b50505050905090810190601f1680156106855780820380516001836020036101000a031916815260200191505b509250505060405180910390f35b34801561069f57600080fd5b506106e2600480360360208110156106b657600080fd5b81019080803573ffffffffffffffffffffffffffffffffffffffff1690602001909291905050506110c9565b6040518082815260200191505060405180910390f35b6107db6004803603606081101561070e57600080fd5b81019080803573ffffffffffffffffffffffffffffffffffffffff169060200190929190803590602001909291908035906020019064010000000081111561075557600080fd5b82018360208201111561076757600080fd5b8035906020019184600183028401116401000000008311171561078957600080fd5b91908080601f016020809104026020016040519081016040528093929190818152602001838380828437600081840152601f19601f82011690508083019250505050505050919291929050505061119e565b005b3480156107e957600080fd5b506107f26112b2565b604051808273ffffffffffffffffffffffffffffffffffffffff1673ffffffffffffffffffffffffffffffffffffffff16815260200191505060405180910390f35b34801561084057600080fd5b506108496112d8565b6040518080602001828103825283818151815260200191508051906020019080838360005b8381101561088957808201518184015260208101905061086e565b50505050905090810190601f1680156108b65780820380516001836020036101000a031916815260200191505b509250505060405180910390f35b3480156108d057600080fd5b5061091f600480360360408110156108e757600080fd5b81019080803573ffffffffffffffffffffffffffffffffffffffff16906020019092919080351515906020019092919050505061137a565b005b34801561092d57600080fd5b50610a316004803603608081101561094457600080fd5b81019080803573ffffffffffffffffffffffffffffffffffffffff169060200190929190803573ffffffffffffffffffffffffffffffffffffffff16906020019092919080359060200190929190803590602001906401000000008111156109ab57600080fd5b8201836020820111156109bd57600080fd5b803590602001918460018302840111640100000000831117156109df57600080fd5b91908080601f016020809104026020016040519081016040528093929190818152602001838380828437600081840152601f19601f820116905080830192505050505050509192919290505050611532565b005b348015610a3f57600080fd5b50610a6c60048036036020811015610a5657600080fd5b81019080803590602001909291905050506115aa565b6040518080602001828103825283818151815260200191508051906020019080838360005b83811015610aac578082015181840152602081019050610a91565b50505050905090810190601f168015610ad95780820380516001836020036101000a031916815260200191505b509250505060405180910390f35b348015610af357600080fd5b50610b5660048036036040811015610b0a57600080fd5b81019080803573ffffffffffffffffffffffffffffffffffffffff169060200190929190803573ffffffffffffffffffffffffffffffffffffffff16906020019092919050505061187b565b604051808215151515815260200191505060405180910390f35b6000806000837bffffffffffffffffffffffffffffffffffffffffffffffffffffffff19167bffffffffffffffffffffffffffffffffffffffffffffffffffffffff1916815260200190815260200160002060009054906101000a900460ff169050919050565b606060068054600181600116156101000203166002900480601f016020809104026020016040519081016040528092919081815260200182805460018160011615610100020316600290048015610c6f5780601f10610c4457610100808354040283529160200191610c6f565b820191906000526020600020905b815481529060010190602001808311610c5257829003601f168201915b5050505050905090565b6000610c848261190f565b610cd9576040517f08c379a000000000000000000000000000000000000000000000000000000000815260040180806020018281038252602c815260200180612e32602c913960400191505060405180910390fd5b6004600083815260200190815260200160002060009054906101000a900473ffffffffffffffffffffffffffffffffffffffff169050919050565b6000610d1f82610fd8565b90508073ffffffffffffffffffffffffffffffffffffffff168373ffffffffffffffffffffffffffffffffffffffff161415610da6576040517f08c379a0000000000000000000000000000000000000000000000000000000008152600401808060200182810382526021815260200180612ee26021913960400191505060405180910390fd5b8073ffffffffffffffffffffffffffffffffffffffff16610dc561192c565b73ffffffffffffffffffffffffffffffffffffffff161480610df45750610df381610dee61192c565b61187b565b5b610e49576040517f08c379a0000000000000000000000000000000000000000000000000000000008152600401808060200182810382526038815260200180612d856038913960400191505060405180910390fd5b610e538383611934565b505050565b6000610e6460026119ed565b905090565b610e7a610e7461192c565b82611a02565b610ecf576040517f08c379a0000000000000000000000000000000000000000000000000000000008152600401808060200182810382526031815260200180612f036031913960400191505060405180910390fd5b610eda838383611af6565b505050565b600080600090506000600190505b610ef7600a611d39565b8111610f30576000600c600083815260200190815260200160002054905080851415610f2257600192505b508080600101915050610eed565b5080915050919050565b6000610f8d82600160008673ffffffffffffffffffffffffffffffffffffffff1673ffffffffffffffffffffffffffffffffffffffff168152602001908152602001600020611d4790919063ffffffff16565b905092915050565b610fb083838360405180602001604052806000815250611532565b505050565b600080610fcc836002611d6190919063ffffffff16565b50905080915050919050565b600061100882604051806060016040528060298152602001612de7602991396002611d909092919063ffffffff16565b9050919050565b600c6020528060005260406000206000915090505481565b606060098054600181600116156101000203166002900480601f0160208091040260200160405190810160405280929190818152602001828054600181600116156101000203166002900480156110bf5780601f10611094576101008083540402835291602001916110bf565b820191906000526020600020905b8154815290600101906020018083116110a257829003601f168201915b5050505050905090565b60008073ffffffffffffffffffffffffffffffffffffffff168273ffffffffffffffffffffffffffffffffffffffff161415611150576040517f08c379a000000000000000000000000000000000000000000000000000000000815260040180806020018281038252602a815260200180612dbd602a913960400191505060405180910390fd5b611197600160008473ffffffffffffffffffffffffffffffffffffffff1673ffffffffffffffffffffffffffffffffffffffff168152602001908152602001600020611daf565b9050919050565b6111a782610edf565b1561121a576040517f08c379a00000000000000000000000000000000000000000000000000000000081526004018080602001828103825260088152602001807f6e6f20647570657300000000000000000000000000000000000000000000000081525060200191505060405180910390fd5b611224600a611dc4565b6000611230600a611d39565b905061123c8482611dda565b6112468183611fce565b82600c6000838152602001908152602001600020819055508373ffffffffffffffffffffffffffffffffffffffff167fe104c08d662c08260738de10185db082c6475349f42a5c71d663473cb813fd9c826040518082815260200191505060405180910390a250505050565b600b60009054906101000a900473ffffffffffffffffffffffffffffffffffffffff1681565b606060078054600181600116156101000203166002900480601f0160208091040260200160405190810160405280929190818152602001828054600181600116156101000203166002900480156113705780601f1061134557610100808354040283529160200191611370565b820191906000526020600020905b81548152906001019060200180831161135357829003601f168201915b5050505050905090565b61138261192c565b73ffffffffffffffffffffffffffffffffffffffff168273ffffffffffffffffffffffffffffffffffffffff161415611423576040517f08c379a00000000000000000000000000000000000000000000000000000000081526004018080602001828103825260198152602001807f4552433732313a20617070726f766520746f2063616c6c65720000000000000081525060200191505060405180910390fd5b806005600061143061192c565b73ffffffffffffffffffffffffffffffffffffffff1673ffffffffffffffffffffffffffffffffffffffff16815260200190815260200160002060008473ffffffffffffffffffffffffffffffffffffffff1673ffffffffffffffffffffffffffffffffffffffff16815260200190815260200160002060006101000a81548160ff0219169083151502179055508173ffffffffffffffffffffffffffffffffffffffff166114dd61192c565b73ffffffffffffffffffffffffffffffffffffffff167f17307eab39ab6107e8899845ad3d59bd9653f200f220920489ca2b5937696c3183604051808215151515815260200191505060405180910390a35050565b61154361153d61192c565b83611a02565b611598576040517f08c379a0000000000000000000000000000000000000000000000000000000008152600401808060200182810382526031815260200180612f036031913960400191505060405180910390fd5b6115a484848484612058565b50505050565b60606115b58261190f565b61160a576040517f08c379a000000000000000000000000000000000000000000000000000000000815260040180806020018281038252602f815260200180612eb3602f913960400191505060405180910390fd5b6060600860008481526020019081526020016000208054600181600116156101000203166002900480601f0160208091040260200160405190810160405280929190818152602001828054600181600116156101000203166002900480156116b35780601f10611688576101008083540402835291602001916116b3565b820191906000526020600020905b81548152906001019060200180831161169657829003601f168201915b5050505050905060606116c4611027565b90506000815114156116da578192505050611876565b6000825111156117ab5780826040516020018083805190602001908083835b6020831061171c57805182526020820191506020810190506020830392506116f9565b6001836020036101000a03801982511681845116808217855250505050505090500182805190602001908083835b6020831061176d578051825260208201915060208101905060208303925061174a565b6001836020036101000a0380198251168184511680821785525050505050509050019250505060405160208183030381529060405292505050611876565b806117b5856120ca565b6040516020018083805190602001908083835b602083106117eb57805182526020820191506020810190506020830392506117c8565b6001836020036101000a03801982511681845116808217855250505050505090500182805190602001908083835b6020831061183c5780518252602082019150602081019050602083039250611819565b6001836020036101000a03801982511681845116808217855250505050505090500192505050604051602081830303815290604052925050505b919050565b6000600560008473ffffffffffffffffffffffffffffffffffffffff1673ffffffffffffffffffffffffffffffffffffffff16815260200190815260200160002060008373ffffffffffffffffffffffffffffffffffffffff1673ffffffffffffffffffffffffffffffffffffffff16815260200190815260200160002060009054906101000a900460ff16905092915050565b60006119258260026121fa90919063ffffffff16565b9050919050565b600033905090565b816004600083815260200190815260200160002060006101000a81548173ffffffffffffffffffffffffffffffffffffffff021916908373ffffffffffffffffffffffffffffffffffffffff160217905550808273ffffffffffffffffffffffffffffffffffffffff166119a783610fd8565b73ffffffffffffffffffffffffffffffffffffffff167f8c5be1e5ebec7d5bd14f71427d1e84f3dd0314c0f7b2291e5b200ac8c7c3b92560405160405180910390a45050565b60006119fb82600001612214565b9050919050565b6000611a0d8261190f565b611a62576040517f08c379a000000000000000000000000000000000000000000000000000000000815260040180806020018281038252602c815260200180612d59602c913960400191505060405180910390fd5b6000611a6d83610fd8565b90508073ffffffffffffffffffffffffffffffffffffffff168473ffffffffffffffffffffffffffffffffffffffff161480611adc57508373ffffffffffffffffffffffffffffffffffffffff16611ac484610c79565b73ffffffffffffffffffffffffffffffffffffffff16145b80611aed5750611aec818561187b565b5b91505092915050565b8273ffffffffffffffffffffffffffffffffffffffff16611b1682610fd8565b73ffffffffffffffffffffffffffffffffffffffff1614611b82576040517f08c379a0000000000000000000000000000000000000000000000000000000008152600401808060200182810382526029815260200180612e8a6029913960400191505060405180910390fd5b600073ffffffffffffffffffffffffffffffffffffffff168273ffffffffffffffffffffffffffffffffffffffff161415611c08576040517f08c379a0000000000000000000000000000000000000000000000000000000008152600401808060200182810382526024815260200180612d0f6024913960400191505060405180910390fd5b611c13838383612225565b611c1e600082611934565b611c6f81600160008673ffffffffffffffffffffffffffffffffffffffff1673ffffffffffffffffffffffffffffffffffffffff16815260200190815260200160002061222a90919063ffffffff16565b50611cc181600160008573ffffffffffffffffffffffffffffffffffffffff1673ffffffffffffffffffffffffffffffffffffffff16815260200190815260200160002061224490919063ffffffff16565b50611cd88183600261225e9092919063ffffffff16565b50808273ffffffffffffffffffffffffffffffffffffffff168473ffffffffffffffffffffffffffffffffffffffff167fddf252ad1be2c89b69c2b068fc378daa952ba7f163c4a11628f55a4df523b3ef60405160405180910390a4505050565b600081600001549050919050565b6000611d568360000183612293565b60001c905092915050565b600080600080611d748660000186612316565b915091508160001c8160001c8090509350935050509250929050565b6000611da3846000018460001b846123af565b60001c90509392505050565b6000611dbd826000016124a5565b9050919050565b6001816000016000828254019250508190555050565b600073ffffffffffffffffffffffffffffffffffffffff168273ffffffffffffffffffffffffffffffffffffffff161415611e7d576040517f08c379a00000000000000000000000000000000000000000000000000000000081526004018080602001828103825260208152602001807f4552433732313a206d696e7420746f20746865207a65726f206164647265737381525060200191505060405180910390fd5b611e868161190f565b15611ef9576040517f08c379a000000000000000000000000000000000000000000000000000000000815260040180806020018281038252601c8152602001807f4552433732313a20746f6b656e20616c7265616479206d696e7465640000000081525060200191505060405180910390fd5b611f0560008383612225565b611f5681600160008573ffffffffffffffffffffffffffffffffffffffff1673ffffffffffffffffffffffffffffffffffffffff16815260200190815260200160002061224490919063ffffffff16565b50611f6d8183600261225e9092919063ffffffff16565b50808273ffffffffffffffffffffffffffffffffffffffff16600073ffffffffffffffffffffffffffffffffffffffff167fddf252ad1be2c89b69c2b068fc378daa952ba7f163c4a11628f55a4df523b3ef60405160405180910390a45050565b611fd78261190f565b61202c576040517f08c379a000000000000000000000000000000000000000000000000000000000815260040180806020018281038252602c815260200180612e5e602c913960400191505060405180910390fd5b80600860008481526020019081526020016000209080519060200190612053929190612c15565b505050565b612063848484611af6565b61206f848484846124b6565b6120c4576040517f08c379a0000000000000000000000000000000000000000000000000000000008152600401808060200182810382526032815260200180612cdd6032913960400191505060405180910390fd5b50505050565b60606000821415612112576040518060400160405280600181526020017f300000000000000000000000000000000000000000000000000000000000000081525090506121f5565b600082905060005b6000821461213c578080600101915050600a828161213457fe5b04915061211a565b6060816040519080825280601f01601f1916602001820160405280156121715781602001600182028038833980820191505090505b50905060006001830390508593505b600084146121ed57600a848161219257fe5b0660300160f81b828280600190039350815181106121ac57fe5b60200101907effffffffffffffffffffffffffffffffffffffffffffffffffffffffffffff1916908160001a905350600a84816121e557fe5b049350612180565b819450505050505b919050565b600061220c836000018360001b6126fb565b905092915050565b600081600001805490509050919050565b505050565b600061223c836000018360001b61271e565b905092915050565b6000612256836000018360001b612806565b905092915050565b600061228a846000018460001b8473ffffffffffffffffffffffffffffffffffffffff1660001b612876565b90509392505050565b6000818360000180549050116122f4576040517f08c379a0000000000000000000000000000000000000000000000000000000008152600401808060200182810382526022815260200180612cbb6022913960400191505060405180910390fd5b82600001828154811061230357fe5b9060005260206000200154905092915050565b60008082846000018054905011612378576040517f08c379a0000000000000000000000000000000000000000000000000000000008152600401808060200182810382526022815260200180612e106022913960400191505060405180910390fd5b600084600001848154811061238957fe5b906000526020600020906002020190508060000154816001015492509250509250929050565b60008084600101600085815260200190815260200160002054905060008114158390612476576040517f08c379a00000000000000000000000000000000000000000000000000000000081526004018080602001828103825283818151815260200191508051906020019080838360005b8381101561243b578082015181840152602081019050612420565b50505050905090810190601f1680156124685780820380516001836020036101000a031916815260200191505b509250505060405180910390fd5b5084600001600182038154811061248957fe5b9060005260206000209060020201600101549150509392505050565b600081600001805490509050919050565b60006124d78473ffffffffffffffffffffffffffffffffffffffff16612952565b6124e457600190506126f3565b606061267a63150b7a0260e01b6124f961192c565b888787604051602401808573ffffffffffffffffffffffffffffffffffffffff1673ffffffffffffffffffffffffffffffffffffffff1681526020018473ffffffffffffffffffffffffffffffffffffffff1673ffffffffffffffffffffffffffffffffffffffff16815260200183815260200180602001828103825283818151815260200191508051906020019080838360005b838110156125a957808201518184015260208101905061258e565b50505050905090810190601f1680156125d65780820380516001836020036101000a031916815260200191505b5095505050505050604051602081830303815290604052907bffffffffffffffffffffffffffffffffffffffffffffffffffffffff19166020820180517bffffffffffffffffffffffffffffffffffffffffffffffffffffffff8381831617835250505050604051806060016040528060328152602001612cdd603291398773ffffffffffffffffffffffffffffffffffffffff166129659092919063ffffffff16565b9050600081806020019051602081101561269357600080fd5b8101908080519060200190929190505050905063150b7a0260e01b7bffffffffffffffffffffffffffffffffffffffffffffffffffffffff1916817bffffffffffffffffffffffffffffffffffffffffffffffffffffffff191614925050505b949350505050565b600080836001016000848152602001908152602001600020541415905092915050565b600080836001016000848152602001908152602001600020549050600081146127fa576000600182039050600060018660000180549050039050600086600001828154811061276957fe5b906000526020600020015490508087600001848154811061278657fe5b90600052602060002001819055506001830187600101600083815260200190815260200160002081905550866000018054806127be57fe5b60019003818190600052602060002001600090559055866001016000878152602001908152602001600020600090556001945050505050612800565b60009150505b92915050565b6000612812838361297d565b61286b578260000182908060018154018082558091505060019003906000526020600020016000909190919091505582600001805490508360010160008481526020019081526020016000208190555060019050612870565b600090505b92915050565b600080846001016000858152602001908152602001600020549050600081141561291d5784600001604051806040016040528086815260200185815250908060018154018082558091505060019003906000526020600020906002020160009091909190915060008201518160000155602082015181600101555050846000018054905085600101600086815260200190815260200160002081905550600191505061294b565b8285600001600183038154811061293057fe5b90600052602060002090600202016001018190555060009150505b9392505050565b600080823b905060008111915050919050565b606061297484846000856129a0565b90509392505050565b600080836001016000848152602001908152602001600020541415905092915050565b6060824710156129fb576040517f08c379a0000000000000000000000000000000000000000000000000000000008152600401808060200182810382526026815260200180612d336026913960400191505060405180910390fd5b612a0485612952565b612a76576040517f08c379a000000000000000000000000000000000000000000000000000000000815260040180806020018281038252601d8152602001807f416464726573733a2063616c6c20746f206e6f6e2d636f6e747261637400000081525060200191505060405180910390fd5b600060608673ffffffffffffffffffffffffffffffffffffffff1685876040518082805190602001908083835b60208310612ac65780518252602082019150602081019050602083039250612aa3565b6001836020036101000a03801982511681845116808217855250505050505090500191505060006040518083038185875af1925050503d8060008114612b28576040519150601f19603f3d011682016040523d82523d6000602084013e612b2d565b606091505b5091509150612b3d828286612b49565b92505050949350505050565b60608315612b5957829050612c0e565b600083511115612b6c5782518084602001fd5b816040517f08c379a00000000000000000000000000000000000000000000000000000000081526004018080602001828103825283818151815260200191508051906020019080838360005b83811015612bd3578082015181840152602081019050612bb8565b50505050905090810190601f168015612c005780820380516001836020036101000a031916815260200191505b509250505060405180910390fd5b9392505050565b828054600181600116156101000203166002900490600052602060002090601f016020900481019282601f10612c5657805160ff1916838001178555612c84565b82800160010185558215612c84579182015b82811115612c83578251825591602001919060010190612c68565b5b509050612c919190612c95565b5090565b612cb791905b80821115612cb3576000816000905550600101612c9b565b5090565b9056fe456e756d657261626c655365743a20696e646578206f7574206f6620626f756e64734552433732313a207472616e7366657220746f206e6f6e20455243373231526563656976657220696d706c656d656e7465724552433732313a207472616e7366657220746f20746865207a65726f2061646472657373416464726573733a20696e73756666696369656e742062616c616e636520666f722063616c6c4552433732313a206f70657261746f7220717565727920666f72206e6f6e6578697374656e7420746f6b656e4552433732313a20617070726f76652063616c6c6572206973206e6f74206f776e6572206e6f7220617070726f76656420666f7220616c6c4552433732313a2062616c616e636520717565727920666f7220746865207a65726f20616464726573734552433732313a206f776e657220717565727920666f72206e6f6e6578697374656e7420746f6b656e456e756d657261626c654d61703a20696e646578206f7574206f6620626f756e64734552433732313a20617070726f76656420717565727920666f72206e6f6e6578697374656e7420746f6b656e4552433732314d657461646174613a2055524920736574206f66206e6f6e6578697374656e7420746f6b656e4552433732313a207472616e73666572206f6620746f6b656e2074686174206973206e6f74206f776e4552433732314d657461646174613a2055524920717565727920666f72206e6f6e6578697374656e7420746f6b656e4552433732313a20617070726f76616c20746f2063757272656e74206f776e65724552433732313a207472616e736665722063616c6c6572206973206e6f74206f776e6572206e6f7220617070726f766564a264697066735822122025221e4075d85d84a0cb381ec5d430c50763d5136edf3dc29ab36db6c49befb364736f6c63430006020033",
  "source": "pragma solidity ^0.6.0;\r\n\r\nimport \"@openzeppelin/contracts/token/ERC721/ERC721.sol\";\r\nimport \"@openzeppelin/contracts/utils/Counters.sol\";\r\n\r\ncontract YaytsoV2 is ERC721 {\r\n    using Counters for Counters.Counter;\r\n    Counters.Counter private _tokenIds;\r\n\r\n    address public owner;\r\n\r\n    mapping(uint256 => bytes32) public idToPattern;\r\n\r\n    event YaytsoMinted(address indexed _recipient, uint256 _tokenId);\r\n\r\n    constructor() public ERC721(\"yaytso\", \"\") {\r\n        owner = msg.sender;\r\n        _setBaseURI(\"ipfs://\");\r\n    }\r\n\r\n    modifier restricted() {\r\n        if (msg.sender == owner) _;\r\n    }\r\n\r\n    function checkDupe(bytes32 _patternHash) public view returns (bool) {\r\n        bool isDupe = false;\r\n        for (uint256 i = 1; i <= _tokenIds.current(); i++) {\r\n            bytes32 _hash = idToPattern[i];\r\n            if (_patternHash == _hash) {\r\n                isDupe = true;\r\n            }\r\n        }\r\n        return isDupe;\r\n    }\r\n\r\n    function mintEgg(\r\n        address _recipient,\r\n        bytes32 _patternHash,\r\n        string memory _tokenURI\r\n    ) public payable {\r\n        require(!checkDupe(_patternHash), \"no dupes\");\r\n        _tokenIds.increment();\r\n        uint256 newTokenId = _tokenIds.current();\r\n        _mint(_recipient, newTokenId);\r\n        _setTokenURI(newTokenId, _tokenURI);\r\n        idToPattern[newTokenId] = _patternHash;\r\n        emit YaytsoMinted(_recipient, newTokenId);\r\n    }\r\n}\r\n",
  "sourcePath": "C:\\Users\\ariel\\yaytso\\contracts\\YaytsoV2.sol",
  "compiler": {
    "name": "solc",
    "version": "0.6.2+commit.bacdbe57.Emscripten.clang"
  },
  "schemaVersion": "3.2.0",
  "updatedAt": "2021-04-19T01:42:19.986Z",
  "networkType": "ethereum",
  "devdoc": {
    "methods": {
      "approve(address,uint256)": {
        "details": "See {IERC721-approve}."
      },
      "balanceOf(address)": {
        "details": "See {IERC721-balanceOf}."
      },
      "baseURI()": {
        "details": "Returns the base URI set via {_setBaseURI}. This will be automatically added as a prefix in {tokenURI} to each token's URI, or to the token ID if no specific URI is set for that token ID."
      },
      "getApproved(uint256)": {
        "details": "See {IERC721-getApproved}."
      },
      "isApprovedForAll(address,address)": {
        "details": "See {IERC721-isApprovedForAll}."
      },
      "name()": {
        "details": "See {IERC721Metadata-name}."
      },
      "ownerOf(uint256)": {
        "details": "See {IERC721-ownerOf}."
      },
      "safeTransferFrom(address,address,uint256)": {
        "details": "See {IERC721-safeTransferFrom}."
      },
      "safeTransferFrom(address,address,uint256,bytes)": {
        "details": "See {IERC721-safeTransferFrom}."
      },
      "setApprovalForAll(address,bool)": {
        "details": "See {IERC721-setApprovalForAll}."
      },
      "supportsInterface(bytes4)": {
        "details": "See {IERC165-supportsInterface}.     * Time complexity O(1), guaranteed to always use less than 30 000 gas."
      },
      "symbol()": {
        "details": "See {IERC721Metadata-symbol}."
      },
      "tokenByIndex(uint256)": {
        "details": "See {IERC721Enumerable-tokenByIndex}."
      },
      "tokenOfOwnerByIndex(address,uint256)": {
        "details": "See {IERC721Enumerable-tokenOfOwnerByIndex}."
      },
      "tokenURI(uint256)": {
        "details": "See {IERC721Metadata-tokenURI}."
      },
      "totalSupply()": {
        "details": "See {IERC721Enumerable-totalSupply}."
      },
      "transferFrom(address,address,uint256)": {
        "details": "See {IERC721-transferFrom}."
      }
    }
  },
  "userdoc": {
    "methods": {}
  }
}