{
  "contractName": "YaytsoV2",
  "abi": [
    {
      "inputs": [],
      "stateMutability": "nonpayable",
      "type": "constructor"
    },
    {
      "anonymous": false,
      "inputs": [
        {
          "indexed": true,
          "internalType": "address",
          "name": "owner",
          "type": "address"
        },
        {
          "indexed": true,
          "internalType": "address",
          "name": "approved",
          "type": "address"
        },
        {
          "indexed": true,
          "internalType": "uint256",
          "name": "tokenId",
          "type": "uint256"
        }
      ],
      "name": "Approval",
      "type": "event"
    },
    {
      "anonymous": false,
      "inputs": [
        {
          "indexed": true,
          "internalType": "address",
          "name": "owner",
          "type": "address"
        },
        {
          "indexed": true,
          "internalType": "address",
          "name": "operator",
          "type": "address"
        },
        {
          "indexed": false,
          "internalType": "bool",
          "name": "approved",
          "type": "bool"
        }
      ],
      "name": "ApprovalForAll",
      "type": "event"
    },
    {
      "anonymous": false,
      "inputs": [
        {
          "indexed": true,
          "internalType": "address",
          "name": "from",
          "type": "address"
        },
        {
          "indexed": true,
          "internalType": "address",
          "name": "to",
          "type": "address"
        },
        {
          "indexed": true,
          "internalType": "uint256",
          "name": "tokenId",
          "type": "uint256"
        }
      ],
      "name": "Transfer",
      "type": "event"
    },
    {
      "anonymous": false,
      "inputs": [
        {
          "indexed": true,
          "internalType": "address",
          "name": "_recipient",
          "type": "address"
        },
        {
          "indexed": false,
          "internalType": "uint256",
          "name": "_tokenId",
          "type": "uint256"
        }
      ],
      "name": "YaytsoLaid",
      "type": "event"
    },
    {
      "inputs": [
        {
          "internalType": "address",
          "name": "to",
          "type": "address"
        },
        {
          "internalType": "uint256",
          "name": "tokenId",
          "type": "uint256"
        }
      ],
      "name": "approve",
      "outputs": [],
      "stateMutability": "nonpayable",
      "type": "function"
    },
    {
      "inputs": [
        {
          "internalType": "address",
          "name": "owner",
          "type": "address"
        }
      ],
      "name": "balanceOf",
      "outputs": [
        {
          "internalType": "uint256",
          "name": "",
          "type": "uint256"
        }
      ],
      "stateMutability": "view",
      "type": "function",
      "constant": true
    },
    {
      "inputs": [],
      "name": "baseURI",
      "outputs": [
        {
          "internalType": "string",
          "name": "",
          "type": "string"
        }
      ],
      "stateMutability": "view",
      "type": "function",
      "constant": true
    },
    {
      "inputs": [
        {
          "internalType": "uint256",
          "name": "tokenId",
          "type": "uint256"
        }
      ],
      "name": "getApproved",
      "outputs": [
        {
          "internalType": "address",
          "name": "",
          "type": "address"
        }
      ],
      "stateMutability": "view",
      "type": "function",
      "constant": true
    },
    {
      "inputs": [
        {
          "internalType": "uint256",
          "name": "",
          "type": "uint256"
        }
      ],
      "name": "idToPattern",
      "outputs": [
        {
          "internalType": "bytes32",
          "name": "",
          "type": "bytes32"
        }
      ],
      "stateMutability": "view",
      "type": "function",
      "constant": true
    },
    {
      "inputs": [
        {
          "internalType": "address",
          "name": "owner",
          "type": "address"
        },
        {
          "internalType": "address",
          "name": "operator",
          "type": "address"
        }
      ],
      "name": "isApprovedForAll",
      "outputs": [
        {
          "internalType": "bool",
          "name": "",
          "type": "bool"
        }
      ],
      "stateMutability": "view",
      "type": "function",
      "constant": true
    },
    {
      "inputs": [],
      "name": "name",
      "outputs": [
        {
          "internalType": "string",
          "name": "",
          "type": "string"
        }
      ],
      "stateMutability": "view",
      "type": "function",
      "constant": true
    },
    {
      "inputs": [
        {
          "internalType": "uint256",
          "name": "tokenId",
          "type": "uint256"
        }
      ],
      "name": "ownerOf",
      "outputs": [
        {
          "internalType": "address",
          "name": "",
          "type": "address"
        }
      ],
      "stateMutability": "view",
      "type": "function",
      "constant": true
    },
    {
      "inputs": [
        {
          "internalType": "address",
          "name": "from",
          "type": "address"
        },
        {
          "internalType": "address",
          "name": "to",
          "type": "address"
        },
        {
          "internalType": "uint256",
          "name": "tokenId",
          "type": "uint256"
        }
      ],
      "name": "safeTransferFrom",
      "outputs": [],
      "stateMutability": "nonpayable",
      "type": "function"
    },
    {
      "inputs": [
        {
          "internalType": "address",
          "name": "from",
          "type": "address"
        },
        {
          "internalType": "address",
          "name": "to",
          "type": "address"
        },
        {
          "internalType": "uint256",
          "name": "tokenId",
          "type": "uint256"
        },
        {
          "internalType": "bytes",
          "name": "_data",
          "type": "bytes"
        }
      ],
      "name": "safeTransferFrom",
      "outputs": [],
      "stateMutability": "nonpayable",
      "type": "function"
    },
    {
      "inputs": [
        {
          "internalType": "address",
          "name": "operator",
          "type": "address"
        },
        {
          "internalType": "bool",
          "name": "approved",
          "type": "bool"
        }
      ],
      "name": "setApprovalForAll",
      "outputs": [],
      "stateMutability": "nonpayable",
      "type": "function"
    },
    {
      "inputs": [
        {
          "internalType": "bytes4",
          "name": "interfaceId",
          "type": "bytes4"
        }
      ],
      "name": "supportsInterface",
      "outputs": [
        {
          "internalType": "bool",
          "name": "",
          "type": "bool"
        }
      ],
      "stateMutability": "view",
      "type": "function",
      "constant": true
    },
    {
      "inputs": [],
      "name": "symbol",
      "outputs": [
        {
          "internalType": "string",
          "name": "",
          "type": "string"
        }
      ],
      "stateMutability": "view",
      "type": "function",
      "constant": true
    },
    {
      "inputs": [
        {
          "internalType": "uint256",
          "name": "index",
          "type": "uint256"
        }
      ],
      "name": "tokenByIndex",
      "outputs": [
        {
          "internalType": "uint256",
          "name": "",
          "type": "uint256"
        }
      ],
      "stateMutability": "view",
      "type": "function",
      "constant": true
    },
    {
      "inputs": [
        {
          "internalType": "address",
          "name": "owner",
          "type": "address"
        },
        {
          "internalType": "uint256",
          "name": "index",
          "type": "uint256"
        }
      ],
      "name": "tokenOfOwnerByIndex",
      "outputs": [
        {
          "internalType": "uint256",
          "name": "",
          "type": "uint256"
        }
      ],
      "stateMutability": "view",
      "type": "function",
      "constant": true
    },
    {
      "inputs": [
        {
          "internalType": "uint256",
          "name": "tokenId",
          "type": "uint256"
        }
      ],
      "name": "tokenURI",
      "outputs": [
        {
          "internalType": "string",
          "name": "",
          "type": "string"
        }
      ],
      "stateMutability": "view",
      "type": "function",
      "constant": true
    },
    {
      "inputs": [],
      "name": "totalSupply",
      "outputs": [
        {
          "internalType": "uint256",
          "name": "",
          "type": "uint256"
        }
      ],
      "stateMutability": "view",
      "type": "function",
      "constant": true
    },
    {
      "inputs": [
        {
          "internalType": "address",
          "name": "from",
          "type": "address"
        },
        {
          "internalType": "address",
          "name": "to",
          "type": "address"
        },
        {
          "internalType": "uint256",
          "name": "tokenId",
          "type": "uint256"
        }
      ],
      "name": "transferFrom",
      "outputs": [],
      "stateMutability": "nonpayable",
      "type": "function"
    },
    {
      "inputs": [
        {
          "internalType": "bytes32",
          "name": "_patternHash",
          "type": "bytes32"
        }
      ],
      "name": "checkDupe",
      "outputs": [
        {
          "internalType": "bool",
          "name": "",
          "type": "bool"
        }
      ],
      "stateMutability": "view",
      "type": "function",
      "constant": true
    },
    {
      "inputs": [
        {
          "internalType": "address",
          "name": "_owner",
          "type": "address"
        }
      ],
      "name": "yaytsosOfOwner",
      "outputs": [
        {
          "internalType": "uint256[]",
          "name": "ownerYaytsos",
          "type": "uint256[]"
        }
      ],
      "stateMutability": "view",
      "type": "function",
      "constant": true
    },
    {
      "inputs": [
        {
          "internalType": "address",
          "name": "_recipient",
          "type": "address"
        },
        {
          "internalType": "bytes32",
          "name": "_patternHash",
          "type": "bytes32"
        },
        {
          "internalType": "string",
          "name": "_tokenURI",
          "type": "string"
        }
      ],
      "name": "layYaytso",
      "outputs": [],
      "stateMutability": "payable",
      "type": "function",
      "payable": true
    }
  ],
  "bytecode": "0x60806040523480156200001157600080fd5b506040518060400160405280600681526020017f79617974736f00000000000000000000000000000000000000000000000000008152506040518060400160405280600881526020017fd18fd0b9d186d0be000000000000000000000000000000000000000000000000815250620000966301ffc9a760e01b6200015e60201b60201c565b8160069080519060200190620000ae92919062000283565b508060079080519060200190620000c792919062000283565b50620000e06380ac58cd60e01b6200015e60201b60201c565b620000f8635b5e139f60e01b6200015e60201b60201c565b6200011063780e9d6360e01b6200015e60201b60201c565b5050620001586040518060400160405280600781526020017f697066733a2f2f000000000000000000000000000000000000000000000000008152506200026760201b60201c565b62000332565b63ffffffff60e01b817bffffffffffffffffffffffffffffffffffffffffffffffffffffffff19161415620001fb576040517f08c379a000000000000000000000000000000000000000000000000000000000815260040180806020018281038252601c8152602001807f4552433136353a20696e76616c696420696e746572666163652069640000000081525060200191505060405180910390fd5b6001600080837bffffffffffffffffffffffffffffffffffffffffffffffffffffffff19167bffffffffffffffffffffffffffffffffffffffffffffffffffffffff1916815260200190815260200160002060006101000a81548160ff02191690831515021790555050565b80600990805190602001906200027f92919062000283565b5050565b828054600181600116156101000203166002900490600052602060002090601f016020900481019282601f10620002c657805160ff1916838001178555620002f7565b82800160010185558215620002f7579182015b82811115620002f6578251825591602001919060010190620002d9565b5b5090506200030691906200030a565b5090565b6200032f91905b808211156200032b57600081600090555060010162000311565b5090565b90565b6130af80620003426000396000f3fe60806040526004361061012a5760003560e01c80636352211e116100ab578063a22cb4651161006f578063a22cb46514610788578063b88d4fde146107e5578063b96bf366146108f7578063c87b56dd146109dc578063e985e9c514610a90578063f84b416414610b195761012a565b80636352211e1461053957806363543ed7146105b45780636c0360eb1461060357806370a082311461069357806395d89b41146106f85761012a565b806323b872dd116100f257806323b872dd1461033257806323efa5ba146103ad5780632f745c591461040057806342842e0e1461046f5780634f6ccce7146104ea5761012a565b806301ffc9a71461012f57806306fdde03146101a1578063081812fc14610231578063095ea7b3146102ac57806318160ddd14610307575b600080fd5b34801561013b57600080fd5b506101876004803603602081101561015257600080fd5b8101908080357bffffffffffffffffffffffffffffffffffffffffffffffffffffffff19169060200190929190505050610bbf565b604051808215151515815260200191505060405180910390f35b3480156101ad57600080fd5b506101b6610c26565b6040518080602001828103825283818151815260200191508051906020019080838360005b838110156101f65780820151818401526020810190506101db565b50505050905090810190601f1680156102235780820380516001836020036101000a031916815260200191505b509250505060405180910390f35b34801561023d57600080fd5b5061026a6004803603602081101561025457600080fd5b8101908080359060200190929190505050610cc8565b604051808273ffffffffffffffffffffffffffffffffffffffff1673ffffffffffffffffffffffffffffffffffffffff16815260200191505060405180910390f35b3480156102b857600080fd5b50610305600480360360408110156102cf57600080fd5b81019080803573ffffffffffffffffffffffffffffffffffffffff16906020019092919080359060200190929190505050610d63565b005b34801561031357600080fd5b5061031c610ea7565b6040518082815260200191505060405180910390f35b34801561033e57600080fd5b506103ab6004803603606081101561035557600080fd5b81019080803573ffffffffffffffffffffffffffffffffffffffff169060200190929190803573ffffffffffffffffffffffffffffffffffffffff16906020019092919080359060200190929190505050610eb8565b005b3480156103b957600080fd5b506103e6600480360360208110156103d057600080fd5b8101908080359060200190929190505050610f2e565b604051808215151515815260200191505060405180910390f35b34801561040c57600080fd5b506104596004803603604081101561042357600080fd5b81019080803573ffffffffffffffffffffffffffffffffffffffff16906020019092919080359060200190929190505050610f89565b6040518082815260200191505060405180910390f35b34801561047b57600080fd5b506104e86004803603606081101561049257600080fd5b81019080803573ffffffffffffffffffffffffffffffffffffffff169060200190929190803573ffffffffffffffffffffffffffffffffffffffff16906020019092919080359060200190929190505050610fe4565b005b3480156104f657600080fd5b506105236004803603602081101561050d57600080fd5b8101908080359060200190929190505050611004565b6040518082815260200191505060405180910390f35b34801561054557600080fd5b506105726004803603602081101561055c57600080fd5b8101908080359060200190929190505050611027565b604051808273ffffffffffffffffffffffffffffffffffffffff1673ffffffffffffffffffffffffffffffffffffffff16815260200191505060405180910390f35b3480156105c057600080fd5b506105ed600480360360208110156105d757600080fd5b810190808035906020019092919050505061105e565b6040518082815260200191505060405180910390f35b34801561060f57600080fd5b50610618611076565b6040518080602001828103825283818151815260200191508051906020019080838360005b8381101561065857808201518184015260208101905061063d565b50505050905090810190601f1680156106855780820380516001836020036101000a031916815260200191505b509250505060405180910390f35b34801561069f57600080fd5b506106e2600480360360208110156106b657600080fd5b81019080803573ffffffffffffffffffffffffffffffffffffffff169060200190929190505050611118565b6040518082815260200191505060405180910390f35b34801561070457600080fd5b5061070d6111ed565b6040518080602001828103825283818151815260200191508051906020019080838360005b8381101561074d578082015181840152602081019050610732565b50505050905090810190601f16801561077a5780820380516001836020036101000a031916815260200191505b509250505060405180910390f35b34801561079457600080fd5b506107e3600480360360408110156107ab57600080fd5b81019080803573ffffffffffffffffffffffffffffffffffffffff16906020019092919080351515906020019092919050505061128f565b005b3480156107f157600080fd5b506108f56004803603608081101561080857600080fd5b81019080803573ffffffffffffffffffffffffffffffffffffffff169060200190929190803573ffffffffffffffffffffffffffffffffffffffff169060200190929190803590602001909291908035906020019064010000000081111561086f57600080fd5b82018360208201111561088157600080fd5b803590602001918460018302840111640100000000831117156108a357600080fd5b91908080601f016020809104026020016040519081016040528093929190818152602001838380828437600081840152601f19601f820116905080830192505050505050509192919290505050611447565b005b6109da6004803603606081101561090d57600080fd5b81019080803573ffffffffffffffffffffffffffffffffffffffff169060200190929190803590602001909291908035906020019064010000000081111561095457600080fd5b82018360208201111561096657600080fd5b8035906020019184600183028401116401000000008311171561098857600080fd5b91908080601f016020809104026020016040519081016040528093929190818152602001838380828437600081840152601f19601f8201169050808301925050505050505091929192905050506114bf565b005b3480156109e857600080fd5b50610a15600480360360208110156109ff57600080fd5b81019080803590602001909291905050506115d3565b6040518080602001828103825283818151815260200191508051906020019080838360005b83811015610a55578082015181840152602081019050610a3a565b50505050905090810190601f168015610a825780820380516001836020036101000a031916815260200191505b509250505060405180910390f35b348015610a9c57600080fd5b50610aff60048036036040811015610ab357600080fd5b81019080803573ffffffffffffffffffffffffffffffffffffffff169060200190929190803573ffffffffffffffffffffffffffffffffffffffff1690602001909291905050506118a4565b604051808215151515815260200191505060405180910390f35b348015610b2557600080fd5b50610b6860048036036020811015610b3c57600080fd5b81019080803573ffffffffffffffffffffffffffffffffffffffff169060200190929190505050611938565b6040518080602001828103825283818151815260200191508051906020019060200280838360005b83811015610bab578082015181840152602081019050610b90565b505050509050019250505060405180910390f35b6000806000837bffffffffffffffffffffffffffffffffffffffffffffffffffffffff19167bffffffffffffffffffffffffffffffffffffffffffffffffffffffff1916815260200190815260200160002060009054906101000a900460ff169050919050565b606060068054600181600116156101000203166002900480601f016020809104026020016040519081016040528092919081815260200182805460018160011615610100020316600290048015610cbe5780601f10610c9357610100808354040283529160200191610cbe565b820191906000526020600020905b815481529060010190602001808311610ca157829003601f168201915b5050505050905090565b6000610cd382611a55565b610d28576040517f08c379a000000000000000000000000000000000000000000000000000000000815260040180806020018281038252602c815260200180612f78602c913960400191505060405180910390fd5b6004600083815260200190815260200160002060009054906101000a900473ffffffffffffffffffffffffffffffffffffffff169050919050565b6000610d6e82611027565b90508073ffffffffffffffffffffffffffffffffffffffff168373ffffffffffffffffffffffffffffffffffffffff161415610df5576040517f08c379a00000000000000000000000000000000000000000000000000000000081526004018080602001828103825260218152602001806130286021913960400191505060405180910390fd5b8073ffffffffffffffffffffffffffffffffffffffff16610e14611a72565b73ffffffffffffffffffffffffffffffffffffffff161480610e435750610e4281610e3d611a72565b6118a4565b5b610e98576040517f08c379a0000000000000000000000000000000000000000000000000000000008152600401808060200182810382526038815260200180612ecb6038913960400191505060405180910390fd5b610ea28383611a7a565b505050565b6000610eb36002611b33565b905090565b610ec9610ec3611a72565b82611b48565b610f1e576040517f08c379a00000000000000000000000000000000000000000000000000000000081526004018080602001828103825260318152602001806130496031913960400191505060405180910390fd5b610f29838383611c3c565b505050565b600080600090506000600190505b610f46600a611e7f565b8111610f7f576000600b600083815260200190815260200160002054905080851415610f7157600192505b508080600101915050610f3c565b5080915050919050565b6000610fdc82600160008673ffffffffffffffffffffffffffffffffffffffff1673ffffffffffffffffffffffffffffffffffffffff168152602001908152602001600020611e8d90919063ffffffff16565b905092915050565b610fff83838360405180602001604052806000815250611447565b505050565b60008061101b836002611ea790919063ffffffff16565b50905080915050919050565b600061105782604051806060016040528060298152602001612f2d602991396002611ed69092919063ffffffff16565b9050919050565b600b6020528060005260406000206000915090505481565b606060098054600181600116156101000203166002900480601f01602080910402602001604051908101604052809291908181526020018280546001816001161561010002031660029004801561110e5780601f106110e35761010080835404028352916020019161110e565b820191906000526020600020905b8154815290600101906020018083116110f157829003601f168201915b5050505050905090565b60008073ffffffffffffffffffffffffffffffffffffffff168273ffffffffffffffffffffffffffffffffffffffff16141561119f576040517f08c379a000000000000000000000000000000000000000000000000000000000815260040180806020018281038252602a815260200180612f03602a913960400191505060405180910390fd5b6111e6600160008473ffffffffffffffffffffffffffffffffffffffff1673ffffffffffffffffffffffffffffffffffffffff168152602001908152602001600020611ef5565b9050919050565b606060078054600181600116156101000203166002900480601f0160208091040260200160405190810160405280929190818152602001828054600181600116156101000203166002900480156112855780601f1061125a57610100808354040283529160200191611285565b820191906000526020600020905b81548152906001019060200180831161126857829003601f168201915b5050505050905090565b611297611a72565b73ffffffffffffffffffffffffffffffffffffffff168273ffffffffffffffffffffffffffffffffffffffff161415611338576040517f08c379a00000000000000000000000000000000000000000000000000000000081526004018080602001828103825260198152602001807f4552433732313a20617070726f766520746f2063616c6c65720000000000000081525060200191505060405180910390fd5b8060056000611345611a72565b73ffffffffffffffffffffffffffffffffffffffff1673ffffffffffffffffffffffffffffffffffffffff16815260200190815260200160002060008473ffffffffffffffffffffffffffffffffffffffff1673ffffffffffffffffffffffffffffffffffffffff16815260200190815260200160002060006101000a81548160ff0219169083151502179055508173ffffffffffffffffffffffffffffffffffffffff166113f2611a72565b73ffffffffffffffffffffffffffffffffffffffff167f17307eab39ab6107e8899845ad3d59bd9653f200f220920489ca2b5937696c3183604051808215151515815260200191505060405180910390a35050565b611458611452611a72565b83611b48565b6114ad576040517f08c379a00000000000000000000000000000000000000000000000000000000081526004018080602001828103825260318152602001806130496031913960400191505060405180910390fd5b6114b984848484611f0a565b50505050565b6114c882610f2e565b1561153b576040517f08c379a00000000000000000000000000000000000000000000000000000000081526004018080602001828103825260088152602001807f6e6f20647570657300000000000000000000000000000000000000000000000081525060200191505060405180910390fd5b611545600a611f7c565b6000611551600a611e7f565b905061155d8482611f92565b6115678183612186565b82600b6000838152602001908152602001600020819055508373ffffffffffffffffffffffffffffffffffffffff167fdd3cd104fc1960eb48ae80fe001f0d0469181641ee9a3d1f644d187fa0c9a458826040518082815260200191505060405180910390a250505050565b60606115de82611a55565b611633576040517f08c379a000000000000000000000000000000000000000000000000000000000815260040180806020018281038252602f815260200180612ff9602f913960400191505060405180910390fd5b6060600860008481526020019081526020016000208054600181600116156101000203166002900480601f0160208091040260200160405190810160405280929190818152602001828054600181600116156101000203166002900480156116dc5780601f106116b1576101008083540402835291602001916116dc565b820191906000526020600020905b8154815290600101906020018083116116bf57829003601f168201915b5050505050905060606116ed611076565b905060008151141561170357819250505061189f565b6000825111156117d45780826040516020018083805190602001908083835b602083106117455780518252602082019150602081019050602083039250611722565b6001836020036101000a03801982511681845116808217855250505050505090500182805190602001908083835b602083106117965780518252602082019150602081019050602083039250611773565b6001836020036101000a038019825116818451168082178552505050505050905001925050506040516020818303038152906040529250505061189f565b806117de85612210565b6040516020018083805190602001908083835b6020831061181457805182526020820191506020810190506020830392506117f1565b6001836020036101000a03801982511681845116808217855250505050505090500182805190602001908083835b602083106118655780518252602082019150602081019050602083039250611842565b6001836020036101000a03801982511681845116808217855250505050505090500192505050604051602081830303815290604052925050505b919050565b6000600560008473ffffffffffffffffffffffffffffffffffffffff1673ffffffffffffffffffffffffffffffffffffffff16815260200190815260200160002060008373ffffffffffffffffffffffffffffffffffffffff1673ffffffffffffffffffffffffffffffffffffffff16815260200190815260200160002060009054906101000a900460ff16905092915050565b6060600061194583611118565b905060008114156119895760006040519080825280602002602001820160405280156119805781602001602082028038833980820191505090505b50915050611a50565b6060816040519080825280602002602001820160405280156119ba5781602001602082028038833980820191505090505b50905060006119c7610ea7565b905060008090506000600190505b828111611a47578673ffffffffffffffffffffffffffffffffffffffff166119fc82611027565b73ffffffffffffffffffffffffffffffffffffffff161415611a3a5780848381518110611a2557fe5b60200260200101818152505081806001019250505b80806001019150506119d5565b83955050505050505b919050565b6000611a6b82600261234090919063ffffffff16565b9050919050565b600033905090565b816004600083815260200190815260200160002060006101000a81548173ffffffffffffffffffffffffffffffffffffffff021916908373ffffffffffffffffffffffffffffffffffffffff160217905550808273ffffffffffffffffffffffffffffffffffffffff16611aed83611027565b73ffffffffffffffffffffffffffffffffffffffff167f8c5be1e5ebec7d5bd14f71427d1e84f3dd0314c0f7b2291e5b200ac8c7c3b92560405160405180910390a45050565b6000611b418260000161235a565b9050919050565b6000611b5382611a55565b611ba8576040517f08c379a000000000000000000000000000000000000000000000000000000000815260040180806020018281038252602c815260200180612e9f602c913960400191505060405180910390fd5b6000611bb383611027565b90508073ffffffffffffffffffffffffffffffffffffffff168473ffffffffffffffffffffffffffffffffffffffff161480611c2257508373ffffffffffffffffffffffffffffffffffffffff16611c0a84610cc8565b73ffffffffffffffffffffffffffffffffffffffff16145b80611c335750611c3281856118a4565b5b91505092915050565b8273ffffffffffffffffffffffffffffffffffffffff16611c5c82611027565b73ffffffffffffffffffffffffffffffffffffffff1614611cc8576040517f08c379a0000000000000000000000000000000000000000000000000000000008152600401808060200182810382526029815260200180612fd06029913960400191505060405180910390fd5b600073ffffffffffffffffffffffffffffffffffffffff168273ffffffffffffffffffffffffffffffffffffffff161415611d4e576040517f08c379a0000000000000000000000000000000000000000000000000000000008152600401808060200182810382526024815260200180612e556024913960400191505060405180910390fd5b611d5983838361236b565b611d64600082611a7a565b611db581600160008673ffffffffffffffffffffffffffffffffffffffff1673ffffffffffffffffffffffffffffffffffffffff16815260200190815260200160002061237090919063ffffffff16565b50611e0781600160008573ffffffffffffffffffffffffffffffffffffffff1673ffffffffffffffffffffffffffffffffffffffff16815260200190815260200160002061238a90919063ffffffff16565b50611e1e818360026123a49092919063ffffffff16565b50808273ffffffffffffffffffffffffffffffffffffffff168473ffffffffffffffffffffffffffffffffffffffff167fddf252ad1be2c89b69c2b068fc378daa952ba7f163c4a11628f55a4df523b3ef60405160405180910390a4505050565b600081600001549050919050565b6000611e9c83600001836123d9565b60001c905092915050565b600080600080611eba866000018661245c565b915091508160001c8160001c8090509350935050509250929050565b6000611ee9846000018460001b846124f5565b60001c90509392505050565b6000611f03826000016125eb565b9050919050565b611f15848484611c3c565b611f21848484846125fc565b611f76576040517f08c379a0000000000000000000000000000000000000000000000000000000008152600401808060200182810382526032815260200180612e236032913960400191505060405180910390fd5b50505050565b6001816000016000828254019250508190555050565b600073ffffffffffffffffffffffffffffffffffffffff168273ffffffffffffffffffffffffffffffffffffffff161415612035576040517f08c379a00000000000000000000000000000000000000000000000000000000081526004018080602001828103825260208152602001807f4552433732313a206d696e7420746f20746865207a65726f206164647265737381525060200191505060405180910390fd5b61203e81611a55565b156120b1576040517f08c379a000000000000000000000000000000000000000000000000000000000815260040180806020018281038252601c8152602001807f4552433732313a20746f6b656e20616c7265616479206d696e7465640000000081525060200191505060405180910390fd5b6120bd6000838361236b565b61210e81600160008573ffffffffffffffffffffffffffffffffffffffff1673ffffffffffffffffffffffffffffffffffffffff16815260200190815260200160002061238a90919063ffffffff16565b50612125818360026123a49092919063ffffffff16565b50808273ffffffffffffffffffffffffffffffffffffffff16600073ffffffffffffffffffffffffffffffffffffffff167fddf252ad1be2c89b69c2b068fc378daa952ba7f163c4a11628f55a4df523b3ef60405160405180910390a45050565b61218f82611a55565b6121e4576040517f08c379a000000000000000000000000000000000000000000000000000000000815260040180806020018281038252602c815260200180612fa4602c913960400191505060405180910390fd5b8060086000848152602001908152602001600020908051906020019061220b929190612d5b565b505050565b60606000821415612258576040518060400160405280600181526020017f3000000000000000000000000000000000000000000000000000000000000000815250905061233b565b600082905060005b60008214612282578080600101915050600a828161227a57fe5b049150612260565b6060816040519080825280601f01601f1916602001820160405280156122b75781602001600182028038833980820191505090505b50905060006001830390508593505b6000841461233357600a84816122d857fe5b0660300160f81b828280600190039350815181106122f257fe5b60200101907effffffffffffffffffffffffffffffffffffffffffffffffffffffffffffff1916908160001a905350600a848161232b57fe5b0493506122c6565b819450505050505b919050565b6000612352836000018360001b612841565b905092915050565b600081600001805490509050919050565b505050565b6000612382836000018360001b612864565b905092915050565b600061239c836000018360001b61294c565b905092915050565b60006123d0846000018460001b8473ffffffffffffffffffffffffffffffffffffffff1660001b6129bc565b90509392505050565b60008183600001805490501161243a576040517f08c379a0000000000000000000000000000000000000000000000000000000008152600401808060200182810382526022815260200180612e016022913960400191505060405180910390fd5b82600001828154811061244957fe5b9060005260206000200154905092915050565b600080828460000180549050116124be576040517f08c379a0000000000000000000000000000000000000000000000000000000008152600401808060200182810382526022815260200180612f566022913960400191505060405180910390fd5b60008460000184815481106124cf57fe5b906000526020600020906002020190508060000154816001015492509250509250929050565b600080846001016000858152602001908152602001600020549050600081141583906125bc576040517f08c379a00000000000000000000000000000000000000000000000000000000081526004018080602001828103825283818151815260200191508051906020019080838360005b83811015612581578082015181840152602081019050612566565b50505050905090810190601f1680156125ae5780820380516001836020036101000a031916815260200191505b509250505060405180910390fd5b508460000160018203815481106125cf57fe5b9060005260206000209060020201600101549150509392505050565b600081600001805490509050919050565b600061261d8473ffffffffffffffffffffffffffffffffffffffff16612a98565b61262a5760019050612839565b60606127c063150b7a0260e01b61263f611a72565b888787604051602401808573ffffffffffffffffffffffffffffffffffffffff1673ffffffffffffffffffffffffffffffffffffffff1681526020018473ffffffffffffffffffffffffffffffffffffffff1673ffffffffffffffffffffffffffffffffffffffff16815260200183815260200180602001828103825283818151815260200191508051906020019080838360005b838110156126ef5780820151818401526020810190506126d4565b50505050905090810190601f16801561271c5780820380516001836020036101000a031916815260200191505b5095505050505050604051602081830303815290604052907bffffffffffffffffffffffffffffffffffffffffffffffffffffffff19166020820180517bffffffffffffffffffffffffffffffffffffffffffffffffffffffff8381831617835250505050604051806060016040528060328152602001612e23603291398773ffffffffffffffffffffffffffffffffffffffff16612aab9092919063ffffffff16565b905060008180602001905160208110156127d957600080fd5b8101908080519060200190929190505050905063150b7a0260e01b7bffffffffffffffffffffffffffffffffffffffffffffffffffffffff1916817bffffffffffffffffffffffffffffffffffffffffffffffffffffffff191614925050505b949350505050565b600080836001016000848152602001908152602001600020541415905092915050565b6000808360010160008481526020019081526020016000205490506000811461294057600060018203905060006001866000018054905003905060008660000182815481106128af57fe5b90600052602060002001549050808760000184815481106128cc57fe5b906000526020600020018190555060018301876001016000838152602001908152602001600020819055508660000180548061290457fe5b60019003818190600052602060002001600090559055866001016000878152602001908152602001600020600090556001945050505050612946565b60009150505b92915050565b60006129588383612ac3565b6129b15782600001829080600181540180825580915050600190039060005260206000200160009091909190915055826000018054905083600101600084815260200190815260200160002081905550600190506129b6565b600090505b92915050565b6000808460010160008581526020019081526020016000205490506000811415612a6357846000016040518060400160405280868152602001858152509080600181540180825580915050600190039060005260206000209060020201600090919091909150600082015181600001556020820151816001015550508460000180549050856001016000868152602001908152602001600020819055506001915050612a91565b82856000016001830381548110612a7657fe5b90600052602060002090600202016001018190555060009150505b9392505050565b600080823b905060008111915050919050565b6060612aba8484600085612ae6565b90509392505050565b600080836001016000848152602001908152602001600020541415905092915050565b606082471015612b41576040517f08c379a0000000000000000000000000000000000000000000000000000000008152600401808060200182810382526026815260200180612e796026913960400191505060405180910390fd5b612b4a85612a98565b612bbc576040517f08c379a000000000000000000000000000000000000000000000000000000000815260040180806020018281038252601d8152602001807f416464726573733a2063616c6c20746f206e6f6e2d636f6e747261637400000081525060200191505060405180910390fd5b600060608673ffffffffffffffffffffffffffffffffffffffff1685876040518082805190602001908083835b60208310612c0c5780518252602082019150602081019050602083039250612be9565b6001836020036101000a03801982511681845116808217855250505050505090500191505060006040518083038185875af1925050503d8060008114612c6e576040519150601f19603f3d011682016040523d82523d6000602084013e612c73565b606091505b5091509150612c83828286612c8f565b92505050949350505050565b60608315612c9f57829050612d54565b600083511115612cb25782518084602001fd5b816040517f08c379a00000000000000000000000000000000000000000000000000000000081526004018080602001828103825283818151815260200191508051906020019080838360005b83811015612d19578082015181840152602081019050612cfe565b50505050905090810190601f168015612d465780820380516001836020036101000a031916815260200191505b509250505060405180910390fd5b9392505050565b828054600181600116156101000203166002900490600052602060002090601f016020900481019282601f10612d9c57805160ff1916838001178555612dca565b82800160010185558215612dca579182015b82811115612dc9578251825591602001919060010190612dae565b5b509050612dd79190612ddb565b5090565b612dfd91905b80821115612df9576000816000905550600101612de1565b5090565b9056fe456e756d657261626c655365743a20696e646578206f7574206f6620626f756e64734552433732313a207472616e7366657220746f206e6f6e20455243373231526563656976657220696d706c656d656e7465724552433732313a207472616e7366657220746f20746865207a65726f2061646472657373416464726573733a20696e73756666696369656e742062616c616e636520666f722063616c6c4552433732313a206f70657261746f7220717565727920666f72206e6f6e6578697374656e7420746f6b656e4552433732313a20617070726f76652063616c6c6572206973206e6f74206f776e6572206e6f7220617070726f76656420666f7220616c6c4552433732313a2062616c616e636520717565727920666f7220746865207a65726f20616464726573734552433732313a206f776e657220717565727920666f72206e6f6e6578697374656e7420746f6b656e456e756d657261626c654d61703a20696e646578206f7574206f6620626f756e64734552433732313a20617070726f76656420717565727920666f72206e6f6e6578697374656e7420746f6b656e4552433732314d657461646174613a2055524920736574206f66206e6f6e6578697374656e7420746f6b656e4552433732313a207472616e73666572206f6620746f6b656e2074686174206973206e6f74206f776e4552433732314d657461646174613a2055524920717565727920666f72206e6f6e6578697374656e7420746f6b656e4552433732313a20617070726f76616c20746f2063757272656e74206f776e65724552433732313a207472616e736665722063616c6c6572206973206e6f74206f776e6572206e6f7220617070726f766564a2646970667358221220ce71333349202206ae3fc40c45821e280d5a36fd68fd562afa79feb0b635b49e64736f6c63430006020033",
  "source": "pragma solidity ^0.6.0;\r\n\r\nimport \"@openzeppelin/contracts/token/ERC721/ERC721.sol\";\r\nimport \"@openzeppelin/contracts/utils/Counters.sol\";\r\n\r\ncontract YaytsoV2 is ERC721 {\r\n    using Counters for Counters.Counter;\r\n    Counters.Counter private _tokenIds;\r\n\r\n    mapping(uint256 => bytes32) public idToPattern;\r\n\r\n    event YaytsoLaid(address indexed _recipient, uint256 _tokenId);\r\n\r\n    constructor() public ERC721(\"yaytso\", \"\") {\r\n        _setBaseURI(\"ipfs://\");\r\n    }\r\n\r\n    function checkDupe(bytes32 _patternHash) public view returns (bool) {\r\n        bool isDupe = false;\r\n        for (uint256 i = 1; i <= _tokenIds.current(); i++) {\r\n            bytes32 _hash = idToPattern[i];\r\n            if (_patternHash == _hash) {\r\n                isDupe = true;\r\n            }\r\n        }\r\n        return isDupe;\r\n    }\r\n\r\n    function yaytsosOfOwner(address _owner)\r\n        public\r\n        view\r\n        returns (uint256[] memory ownerYaytsos)\r\n    {\r\n        uint256 tokenCount = balanceOf(_owner);\r\n\r\n        if (tokenCount == 0) {\r\n            return new uint256[](0);\r\n        } else {\r\n            uint256[] memory result = new uint256[](tokenCount);\r\n            uint256 totalYaytsos = totalSupply();\r\n            uint256 resultIndex = 0;\r\n\r\n            uint256 yaytsoId;\r\n\r\n            for (yaytsoId = 1; yaytsoId <= totalYaytsos; yaytsoId++) {\r\n                if (ownerOf(yaytsoId) == _owner) {\r\n                    result[resultIndex] = yaytsoId;\r\n                    resultIndex++;\r\n                }\r\n            }\r\n            return result;\r\n        }\r\n    }\r\n\r\n    function layYaytso(\r\n        address _recipient,\r\n        bytes32 _patternHash,\r\n        string memory _tokenURI\r\n    ) public payable {\r\n        require(!checkDupe(_patternHash), \"no dupes\");\r\n        _tokenIds.increment();\r\n        uint256 newTokenId = _tokenIds.current();\r\n        _mint(_recipient, newTokenId);\r\n        _setTokenURI(newTokenId, _tokenURI);\r\n        idToPattern[newTokenId] = _patternHash;\r\n        emit YaytsoLaid(_recipient, newTokenId);\r\n    }\r\n}\r\n",
  "sourcePath": "C:\\Users\\ariel\\yaytso\\contracts\\YaytsoV2.sol",
  "compiler": {
    "name": "solc",
    "version": "0.6.2+commit.bacdbe57.Emscripten.clang"
  },
  "schemaVersion": "3.2.0",
  "updatedAt": "2021-05-27T05:39:04.160Z",
  "networkType": "ethereum",
  "devdoc": {
    "methods": {
      "approve(address,uint256)": {
        "details": "See {IERC721-approve}."
      },
      "balanceOf(address)": {
        "details": "See {IERC721-balanceOf}."
      },
      "baseURI()": {
        "details": "Returns the base URI set via {_setBaseURI}. This will be automatically added as a prefix in {tokenURI} to each token's URI, or to the token ID if no specific URI is set for that token ID."
      },
      "getApproved(uint256)": {
        "details": "See {IERC721-getApproved}."
      },
      "isApprovedForAll(address,address)": {
        "details": "See {IERC721-isApprovedForAll}."
      },
      "name()": {
        "details": "See {IERC721Metadata-name}."
      },
      "ownerOf(uint256)": {
        "details": "See {IERC721-ownerOf}."
      },
      "safeTransferFrom(address,address,uint256)": {
        "details": "See {IERC721-safeTransferFrom}."
      },
      "safeTransferFrom(address,address,uint256,bytes)": {
        "details": "See {IERC721-safeTransferFrom}."
      },
      "setApprovalForAll(address,bool)": {
        "details": "See {IERC721-setApprovalForAll}."
      },
      "supportsInterface(bytes4)": {
        "details": "See {IERC165-supportsInterface}.     * Time complexity O(1), guaranteed to always use less than 30 000 gas."
      },
      "symbol()": {
        "details": "See {IERC721Metadata-symbol}."
      },
      "tokenByIndex(uint256)": {
        "details": "See {IERC721Enumerable-tokenByIndex}."
      },
      "tokenOfOwnerByIndex(address,uint256)": {
        "details": "See {IERC721Enumerable-tokenOfOwnerByIndex}."
      },
      "tokenURI(uint256)": {
        "details": "See {IERC721Metadata-tokenURI}."
      },
      "totalSupply()": {
        "details": "See {IERC721Enumerable-totalSupply}."
      },
      "transferFrom(address,address,uint256)": {
        "details": "See {IERC721-transferFrom}."
      }
    }
  },
  "userdoc": {
    "methods": {}
  }
}